:020000040800F2
:10000000A0070020E50100080B2A0008312700089E
:10001000092A0008311300086535000800000000B7
:100020000000000000000000000000001F2C00087D
:1000300033130008000000000D2A0008212C0008DE
:10004000FF010008FF010008FF010008FF01000890
:10005000FF010008FF010008FF010008FF01000880
:10006000FF010008FF010008FF010008FF01000870
:10007000FF010008FF010008FF010008FF01000860
:10008000FF010008FF010008FF010008FF01000850
:10009000FF010008FF010008FF010008FF01000840
:1000A000FF010008FF010008FF010008FF01000830
:1000B000FF010008FF010008FF010008FF01000820
:1000C000FF010008FF010008FF010008FF01000810
:1000D000FF010008FF010008FF010008FF01000800
:1000E000FF010008FF010008FF010008FF010008F0
:1000F000FF010008FF010008FF010008FF010008E0
:10010000FF010008FF010008FF010008FF010008CF
:10011000FF010008FF010008992C0008012D0008CC
:10012000FF010008FF010008FF010008FF010008AF
:1001300000F002F800F047F80AA090E8000C8244B2
:100140008344AAF10107DA4501D100F03CF8AFF28F
:10015000090EBAE80F0013F0010F18BFFB1A43F0A5
:1001600001031847A4590000C4590000103A24BFE5
:1001700078C878C1FAD8520724BF30C830C144BF0C
:1001800004680C607047000000230024002500264E
:10019000103A28BF78C1FBD8520728BF30C148BFEA
:1001A0000B607047662904F06E83002070471FB50E
:1001B00000F036FB04000020002103F009FCE060A1
:1001C0001FBD10B510BD00F027FC1146FFF7EFFF73
:1001D00003F0F4F900F045FC03B4FFF7F2FF03BCB1
:1001E00000F086FC0948804709480047FEE7FEE723
:1001F000FEE7FEE7FEE7FEE7FEE7FEE7FEE7FEE7D7
:1002000004480549054A064B70470000972C000832
:1002100031010008A0010020A0070020A003002059
:10022000A00300200FB41CB50C0007AA009001D059
:100230002044401E074B7B4469460190069800F01D
:10024000CEFA002C03D06946002000F0DBFA1CBC7B
:100250005DF814FBD50500002DE9F0474FF0000ACA
:1002600089460446C0F820A02046E1688847002857
:1002700076D0252806D0D4E901219047206A401C79
:100280002062F1E7E168204600258847C4F81CA0F9
:1002900006460027C4F818A02A2E09D0304603F0DD
:1002A00086F938B304EB8708303EC8F8186019E0C7
:1002B00059F8041B204604EB87029161E1688847E6
:1002C000012F064618D1E069002820DA25F0200524
:1002D0001DE0D8F8180000EB800006EB4000303835
:1002E000C8F818002046E1688847064603F05FF921
:1002F0000028EED1012F0AD02E2E08D12046E16829
:1003000088477F1C0646022F45F02005C4DBA06904
:10031000002803DA404245F00105A061E80701D05A
:1003200025F01005B6B1A6F14100192802D82036F3
:1003300045F400654A463146204625604D46FFF7A4
:1003400031FF58B1012806D0ED1D25F0070000F15E
:10035000080989E704E005F1040985E730468AE7E2
:10036000206ABDE8F0874FF0000200B513469446BE
:100370009646203922BFA0E80C50A0E80C50B1F1FD
:100380002001BFF4F7AF090728BFA0E80C5048BF11
:100390000CC05DF804EB890028BF40F8042B08BFAF
:1003A000704748BF20F8022B11F0804F18BF00F8AB
:1003B000012B704770477047704770472DE9FF4F1A
:1003C0000C461E464FF0FF378BB0D2E90001DDF836
:1003D00060800A908A46C1F30A5505B93D4600215E
:1003E00008464FF00000BAF1000F00F4400005DAB3
:1003F00000EB80004FF4400101EA50004FEA9059B1
:10040000B9F1010F00DDB9460A9850EA4A000ED052
:1004100044F61050A5F2FF3545432F14B8F1000FF4
:100420001ED07542291E1EDDC9F100021CE0B8F184
:10043000010F4FF0000001D0302103E0F24305E04E
:100440002154401CB042FBDB3046002200212154E5
:100450000B99C1F80880C1E900200FB0BDE8F08F0A
:10046000BD1B6D1CDEE74A4600DA694206A800F0B3
:1004700061FA06AB93E8070003AB83E80700504638
:100480000A9900F03CFB8DE80700A0F500501F38EA
:1004900000900398002D09DD42F21F014A460844EE
:1004A00003A90390684600F09BFD08E0A0F500500A
:1004B0004A461F3803A90390684600F0A5FD8DE861
:1004C00007000004000C03D04FF0FF30410800E0AB
:1004D0001046B8F1000F03D00022009215461EE02E
:1004E000751E05D400F0A0F9303262556D1EF9D5A5
:1004F000B3460122084302D000227F1C04E020788A
:10050000302801D100227F1E002A099786D01DE0E5
:10051000112D07DA00F088F9303262556D1C50EA6F
:100520000102F5D1084302D00098C8B10EE00021C5
:10053000681E05E0235C625C63542254401E491C23
:100540008142F7DBAB46A81B401E0990002004F84F
:100550000B000B98099AC0F80880C0E9002B7CE7D3
:1005600011264FF0000859E72DE9F04F8846044660
:10057000D21D22F0070191B0D1E90001CDE90A01B5
:1005800002F0F1FF02460B98C00F01D02D2007E0CA
:100590002068810701D52B2002E0202101EAC0005C
:1005A000032A099001D0072A05DB0346414620466D
:1005B00000F080F90BE12078800601D5E06900E0C9
:1005C0000620B8F1650F814606D0B8F1660F18D045
:1005D000B8F1670F70D131E00020B9F1110F009030
:1005E00001DB112301E009F101030AAA01A90CA80A
:1005F000FFF7E4FEDDE90C70002609F101058346F2
:1006000047E001204B4600904FF000470AAA01A99D
:100610000CA8FFF7D3FEDDE90DB00C995D4600266E
:1006200010B909F101000D18B9EB050003D4C0F1B0
:10063000FF3609F10105A5EB09002BE0B9F1010F27
:1006400001DA4FF001090020B9F1110F009048467E
:1006500001DD112300E003460AAA01A90CA8FFF757
:10066000ADFEDDE90C704D4600268346207800077C
:100670000AD4AB4500DA5D4601A8012D04DD41191D
:1006800011F8011C302907D04F4502DA17F1040F89
:1006900004DA012082460FE06D1EEEE7002F02DC37
:1006A000ED1B3E4403E0781CA84200DD7D1CB81B16
:1006B00000F1010A4FF000472078000703D4AA4553
:1006C00001DB4FF0FF3A0021B7F1004F0DF1430875
:1006D0008DF8431024D002202B23002F01DA7F4213
:1006E0002D230A21021EA0F1010000DC5FB197FB5F
:1006F000F1FC97FBF1F201FB1C7C17460CF1300C6E
:1007000008F801CDEEE7A8F1010003702188090582
:1007100001D5452100E06521A0F1010800F8011C88
:1007200009980FA9A1EB0807FF1D00B1012041198D
:1007300001EBEA70A1693844081A401EA0612078D4
:10074000C00602D42046AFF30080099828B1D4E94E
:1007500001219047206A401C20622078C00622D5E3
:100760002046AFF300801EE0002E04DBB34502DD1F
:1007700001A8805D00E03020D4E901219047206A83
:10078000401C2062761CAAF101005FEA000A0AD12F
:1007900000F046F8C0680168405CD4E90121904748
:1007A000206A401C2062281EA5F10105DCDC07E060
:1007B000D4E9012118F8010B9047206A401C2062FF
:1007C000381EA7F10107F3DC2046AFF300800320B9
:1007D00011B043E601694A1C02610878704700B510
:1007E0008FB0CDE901310021059105497944CDE96A
:1007F000031011466846FFF72FFD0FB000BD000043
:10080000E5FFFFFF0A6802F8010B0A607047D1E9B3
:1008100000239A4202D2531C0B60107070470000F4
:10082000004870476001002030B5B0F10A024FEA7D
:10083000900E71F100034EEA817EB0EB0E0061EB89
:1008400091014FEA101E4EEA017E10EB0E0041EBC3
:1008500011114FEA102E4EEA016E10EB0E0041EB23
:1008600011214FEA104E4EEA014E10EB0E0041EB03
:100870001141401841F100014FEAD00040EA4170B7
:100880004FEAD10110EB80054FEA810444EA9074ED
:1008900044EB01046D1944EB0404521BA3414FF0D7
:1008A000000348BF0A3200D530BD401C41F10001B1
:1008B00030BD00002DE9F0411F46044603260168C3
:1008C000072A01F4006004DB08B116A505E016A5AF
:1008D00003E008B115A500E015A521F01000206087
:1008E000A069C01EA0610FB1401EA0612046AFF3F9
:1008F00000804FB1D4E9012138469047206A401C5E
:100900002062C01C206206E0206AFAE7D4E90121D7
:1009100015F8010B9047761EF8D22046AFF3008001
:10092000BDE8F0814E414E006E616E00494E4600BA
:10093000696E66002DE9F047814616468AB0334855
:1009400078440DC88DE80D0030487844801C03AC15
:100950000DC884E80D0041F69B300844372190FB18
:10096000F1F290FBF1F5A5F1800501FB12041B3CAF
:1009700002D56442012000E00020DFF890A080460C
:100980000027FA44AAF1BE0A0DE0E00709D032467A
:10099000684607EB47010AEB810100F035FB8DE863
:1009A000070064107F1C002CEFD1184F7F44AC3F30
:1009B00018E0E80714D007EB04100DF1180A90E8CE
:1009C0000E008AE80E00C068F04201D19819089024
:1009D000324606A903A800F017FB03AB83E8070023
:1009E0006D10641C002DE4D132466946B8F1000F49
:1009F00003A802D000F0F4FA01E000F005FBC9E919
:100A00000001C9F808200AB0BDE8F087AC51000029
:100A100000487047400100207546FFF7F9FFAE46D9
:100A200005006946534620F00700854618B020B5FA
:100A3000FFF7E6FBBDE820404FF000064FF000074F
:100A40004FF000084FF0000B21F00701AC46ACE876
:100A5000C009ACE8C009ACE8C009ACE8C0098D46E3
:100A600070470446AFF300802046FFF7B5FB000057
:100A70004FF0013C50F8042B51F8043B9A4221D12D
:100A8000A2EB0C03934313EACC1317D150F8042BB9
:100A900051F8043B9A4215D1A2EB0C03934313EA9D
:100AA000CC130BD150F8042B51F8043B9A4209D1D6
:100AB000A2EB0C03934313EACC13DBD04FF00000FE
:100AC000704700BFD01A01BAB1FA81F101F01801E4
:100AD00022FA01F0CB40C1F12001DBB2C0B2C01A52
:100AE0002CFA01F3D11A914311EAC311E6D17047F0
:100AF00001491820ABBEFEE72600020070475FEAFE
:100B0000400C08BF91F0000F4FEA8C234FEAC1223E
:100B100043EA51514FEA1C5018BF00F5F0404FEA2C
:100B2000300018BF41F000415FEA6C5C00F02980A2
:100B3000BCF1FF3F08BF40F080407047130C06BF78
:100B400012044FF0100C4FF0000C130E04BF1202F1
:100B50000CF1080C130F04BF12010CF1040C930FDD
:100B600004BF92000CF1020CD30F04BF52000CF131
:100B7000010C11464FF00002A0F11F00A0EB0C0089
:100B8000704711F0004F08BF704731F000413FF44B
:100B9000D5AF0B0C06BF09044FF0100C4FF0000C42
:100BA0000B0E04BF09020CF1080C0B0F04BF090166
:100BB0000CF1040C8B0F04BF89000CF1020CCB0F5D
:100BC00004BF49000CF1010CCCF12003A0EB0C0098
:100BD00022FA03F302FA0CF241EA030100F10100E8
:100BE000704720F07F4C80EA030023F07F47ACEB96
:100BF000070303F57C5300F0004003F1FF032DE9E8
:100C000080494FEA154B09B44FEA144325EA0B4ECD
:100C100024EA03480FF2042606EB132749083E781E
:100C20005FEA320203FB0667C7F5000707FB06F61B
:100C30004FEA54374FEAD64606F1020607FB066C28
:100C4000CCF1005C4FEA1C472CEA074C07FB06F48A
:100C50000CFB06F504EB15464FEA961634BF002050
:100C60004FF000404FEAD13706FB07FC4FEA1C4C1F
:100C70000CFB0BF7D21B03FB0CF761EB07010CFB22
:100C80000EF7B0EB074072EB17420CFB08F734BFCE
:100C9000A2EB0742B2EB074261EB17414FEA0C446B
:100CA0004FEA910706FB07FC4FEA1C4C0CFB0BF7C5
:100CB000B0EBC74072EB573203FB0CF734BFA2EB2B
:100CC000C742B2EBC74261EB57310CFB0EF7B0EBFA
:100CD000C70072EB57720CFB08F734BFA2EBC702D8
:100CE000B2EBC70261EB5771039F4FEA816141EAA2
:100CF000921104EBCC044FEAD1374FEA826206FB33
:100D000007FC42EA90124FEA80604FEA1C4C0CFB51
:100D10000BF7D21B03FB0CF761EB07010CFB0EF783
:100D2000B0EB074072EB17420CFB08F734BFA2EBA5
:100D30000742B2EB074261EB17414FEA8C554FEA8D
:100D4000910704EB9C2406FB07FC4FEA1C4C0CFBB0
:100D50000BF7B0EBC74072EB573203FB0CF734BF15
:100D6000A2EBC742B2EBC74261EB57310CFB0EF767
:100D7000B0EBC70072EB57720CFB08F734BFA2EB65
:100D8000C702B2EBC70261EB577115EB4C254FEA76
:100D9000816141EA92114FEA82624FEAD13742EA19
:100DA000901206FB07FC44F100044FEA80604FEA12
:100DB0001C4C0CFB0BF7D21B03FB0CF761EB070180
:100DC0000CFB0EF7B0EB074072EB17420CFB08F779
:100DD00034BFA2EB0742B2EB074261EB174115EBC0
:100DE0001C154FEA813141EA92414FEA823242EAD0
:100DF00090424FEA80304FEA0C7644F1000448EA12
:100E000003434EEA0B484FF0000EB2EB080C71EBB7
:100E1000030724BF624639464EEB0E0E4FF0000B1F
:100E20000018524149414BEB0B0BB2EB080C71EB34
:100E300003077BF1000B24BF624639464EEB0E0ED2
:100E40004FF0000B0018524149414BEB0B0BB2EB3A
:100E5000080C71EB03077BF1000B24BF6246394697
:100E60004EEB0E0E51EA020718BF46F0010616EBD4
:100E70000E7655F1000254F1000103D5BDE8890159
:100E8000BDE80088BDE88901BDE80048B6195241B7
:100E900041EB0101A3F10103704780807F7E7D7CDF
:100EA0007B7A7978777676757473727171706F6EFC
:100EB0006E6D6C6C6B6A6A696868676666656464A7
:100EC000636362616160605F5F5E5E5D5D5C5C5B31
:100ED0005B5A5A59595858575756565555555454A0
:100EE000535352525251515050504F4F4F4E4E4DFE
:100EF0004D4D4C4C4C4B4B4B4A4A4A49494948484A
:100F00004847474747464646454545444444444389
:100F100043434342424242414141002B26D47700A1
:100F200021D01CB54FEA370703B44FF010004FF043
:100F300010014FF000000FBCBDE810400BF1010B99
:100F4000BBF1010F08BF5FEA170722BF12F10102D0
:100F500011F101014FF0004143F1000300F00040A6
:100F600043EA00007047F9D35708DAE746EA064635
:100F700013F1400F4FEA16461FDD13F1200FDFBFBC
:100F800016430A46002120335B42C8D0C3F1200734
:100F900046EA064602FA07F74FEA164646EA070609
:100FA000C3F1200722FA03F201FA07F721FA03F14D
:100FB0004FF0000342EA0702B1E746EA020646EABA
:100FC00006464FEA164646EA0106BCBF46EA064612
:100FD000360C4FF000034FF000024FF000019EE787
:100FE0002DE9C048934630B491E8380007C831EA8B
:100FF000400C48BF34EA430C03D5FFF7F2FDFFF77E
:101000008CFFF0BCBDE800882DE9C048934630B4A1
:1010100091E8380007C810F0804F08BF13F0804FE8
:1010200003D100F005F8FFF778FFF0BCBDE80088B9
:1010300020F07F4780EA030023F07F4C07EB0C038E
:10104000A3F57C5300F00040A3F1FE0392F0000FE3
:1010500000F0B38095F0000F00F077802DE9014992
:101060004FEA11404FEA144621EA004800FB06FC13
:1010700024EA064708FB06F607FB08F800FB07F71B
:1010800018EB06484CEB164C4FEA124B18EB07488E
:101090004FEA15464CEB174022EA0B4E0BFB06FCC1
:1010A00025EA06470EFB06F607FB0EFE0BFB07F7CD
:1010B0001EEB064E4CEB164C4FF000061EEB074E97
:1010C0004CEB174B18EB0B0840F1000018EB0E0B24
:1010D00058EB000840F100008F1A4FF000013CBFB0
:1010E000C943661B14BFB5EB040C00213CBFC943C8
:1010F000F61B4FEA17444EEA8E0E27EA04454FEAE4
:101100001C4704FB07622CEA074C05FB07F70CFBA6
:1011100005F604FB0CFC16EB074642EB174216EBF8
:101120000C4642EB1C421BEB060658EB0202414107
:1011300046EA9E0601D5BDE80189B619524141EB48
:101140000101A3F10103BDE801894FEA14454FEA0B
:10115000114724EA054621EA074C05FB07F406FB84
:1011600007F70CFB06F105FB0CFC11EB074144EB08
:1011700017444FEA124711EB0C4144EB1C4422EA9E
:10118000074C05FB07F206FB07F70CFB06F605FB11
:101190000CFC16EB074642EB174216EB0C4642EBF3
:1011A0001C456A1854F1000148BF7047B6195241F6
:1011B00041EB0101A3F10103704795F0000F37D017
:1011C0004FEA11424FEA144721EA024624EA074C4B
:1011D00002FB07F106FB07F70CFB06F402FB0CFC15
:1011E00014EB074441EB17414FEA154714EB0C444D
:1011F00041EB1C4125EA074C02FB07F506FB07F70C
:101200000CFB06F602FB0CFC16EB074645EB1745FC
:1012100016EB0C4645EB1C42121951F1000148BF78
:101220007047B619524141EB0101A3F10103704728
:101230004FEA14454FEA114724EA054621EA074CD4
:1012400005FB07F106FB07F70CFB06F24FF0000663
:1012500005FB0CFC12EB074241EB174112EB0C4271
:1012600051EB1C4148BF7047921841EB0101A3F1BB
:101270000103704770B5044600688168C943C90717
:101280001CD1816821F00101816000F05FFC0546FE
:101290000FE000BF00F05AFC401B022809D9A06AE9
:1012A00040F01000A062E06A40F00100E06201201E
:1012B00070BD20688068C043C007EBD0002070BDBF
:1012C000F8B500260446009600688168C943C9073E
:1012D00028D0816841F001018160134813490068FA
:1012E000B0FBF1F000E0401E00900028FBD100F0C0
:1012F0002DFC054611E000BF00F028FC401B022831
:101300000BD9A06A40F01000A062E06A40F0010032
:10131000E06284F824600120F8BD20688068C04342
:10132000C007E9D10020F8BD3400002040420F0082
:10133000FEE7704730B5B3F5804F05D06FF07041D0
:1013400040F82210002030BD8C690B688D68234363
:101350004C688989240144EA0524234343EA014176
:1013600050F82230014C23401943E9E70000F0CF48
:1013700010B50A6850F8223023F0010340F82230FB
:101380008C68082C23D000234A682243CC681C4375
:101390000B6922431A434B690E4C1A43CB691A431B
:1013A0000B6A1A434B6A1A438B6A1A43CB6A1A4375
:1013B0000B6B1A438B6913434A6B09681A4350F845
:1013C0002130A343134340F82130002010BD4023B7
:1013D000DAE700007FFF0F0030B5D1E9003443EABF
:1013E00004138C688D89240244EA054423430C8A43
:1013F000094D00EB820005EB045423430C7D6D0185
:1014000005EB0464896923430B43416801F04041C3
:101410000B434360002030BD0000F0FFF8B500240E
:10142000009490F824202546012A12D0012280F849
:1014300024204A681F23072A0DD20668776B521EA4
:1014400002EB820293409F430B6893401F437763F4
:1014500019E00220F8BD06680D2A0AD2376BD21FA8
:1014600002EB820293409F430B6893401F43376314
:1014700009E0F76A0D3A02EB820293409F430B6842
:1014800093401F43F7620A68072306680A2A0AD3B3
:10149000F7680A3A02EB420293409F438B689340FD
:1014A0001F43F76008E0376902EB420293409F4315
:1014B0008B6893401F4337610A68102A01D0112AB4
:1014C00020D1124B02689A4217D193681B0219D49B
:1014D000936843F4000393600968102912D10C4902
:1014E0000C4A0968B1FBF2F101EB8101490000E00F
:1014F000491E00910029FBD104E0816A41F02001DE
:101500008162012480F824502046F8BD0024014067
:101510003400002040420F000068C06C704700009B
:101520002DE9F04104004FF0000514D0A06A002618
:1015300028B9E66284F82460204600F083F820464B
:10154000FFF798FEA16A01F01001014304D0A06AE0
:1015500040F01000A0626BE0A16A21F4885141F0D4
:101560000201A162334923688B42E16904D1B1F5DC
:10157000402F01D14FF40021277B4FF4807C41EABA
:10158000470261680A43A168614509D0012907D073
:101590005FF0000194F814E0BEF1010F02D00AE000
:1015A0006146F7E7C7B1A76A47F02007A762E76A75
:1015B00047F00107E7625F6827F469470F435F6000
:1015C000236899681C4F394011439960A1686145AF
:1015D0000BD0012909D00CE0DFF860E0A7690EEB21
:1015E00047370F4347F40061E5E7218A0D05A5F56C
:1015F00080152168CB6A23F470032B43CB622168EA
:1016000089680F4B1940914208D1E662A16A21F026
:10161000020141F00101A162BDE8F081A06A20F061
:10162000020040F01000A062E06A40F00100E062B9
:101630000120F1E7003C0140FDF7E1FF00E0FFFF82
:10164000FE0E1FFF00B585B00021009101910291AF
:10165000039100680E49884218D10E48816941F40F
:1016600000718161816901F400710491816941F027
:10167000100181618069694600F010000490082023
:10168000009003200190044800F05AF905B000BD15
:101690000024014000100240001001402DE9F843F1
:1016A00000260D460446009600F050FA8046206859
:1016B0008168C90508D5A06A40F02000A06284F8BE
:1016C00024600120BDE8F8834168C90503D4C06ADD
:1016D00010F4700F26D0022000F0D6FA38490968BD
:1016E000B1FBF0F72068036936490B424FEA61010C
:1016F0004FEAA1121BD1C3684FEA611C13EA0C0F19
:1017000015D103690B4221D1C06810421ED11420AB
:101710001FE0681C06D045B300F018FAA0EB0800E3
:10172000A84222D8206800688007F2D52AE0036921
:101730000B4202D1C168114206D0026922490A4215
:1017400006D1C068084203D1542002E0292000E0FD
:10175000FC204743009813E0681C0ED02DB100F028
:10176000F5F9A0EB0800A84207D9A06A40F00400F0
:10177000A06284F824600320A4E70098401C009035
:10178000B842E9D321686FF012000860A06A40F403
:101790000070A06220688068C0F3424007280CD126
:1017A000207B50B9A06A20F48070A062A06AC004B7
:1017B00003D4A06A40F00100A062002082E700008C
:1017C00034000020244992244992240070B5044634
:1017D00090F8240001280DD0012084F82400204630
:1017E000FFF76EFD02004FF0000005D084F82400E2
:1017F000104670BD022070BDA16A40F201239943DA
:1018000041F48071A1621F4D23681F49AB4218D17A
:101810000E6816F4702F14D0A66A46F48016A662DD
:101820000E68760505D5A66A26F4005646F480565D
:10183000A662A66AF6040AD5E66A26F00606E662FD
:1018400006E0A66A26F48016A6625E68E9E7E06212
:1018500084F824006FF00200186020688368C3F3E6
:101860004243072B05D1A84208D1096811F4702F13
:1018700004D0816841F480118160B9E7816841F446
:10188000A001F9E7002801400424014070B5044696
:1018900000F05CF90546601C02D00448007804445E
:1018A00000F054F9401BA042FAD370BD280000207C
:1018B00030B585B0002000900190029003901A4846
:1018C000016800292DD1012101601848426942F4C4
:1018D0008072426140690224CDE9001400F48070F6
:1018E0000325CDE903506946114800F029F84FF669
:1018F0008070CDE90004694603950E4800F020F899
:101900004CF23370CDE90004694603950A4800F0B3
:1019100017F8E002CDE9000469460395074800F096
:101920000FF805B030BD000020000020001002407C
:10193000001C01400018014000140140002001403B
:101940002DE9F84FDFF8C891002409F1040A0AF1E3
:10195000040B23460F270BF1040ED1E00125A5400F
:1019600006EA0502AA4276D1DFF8A8C14E68A6EBC6
:101970000C0866452BD00DDC032E34D005DC36B3C5
:10198000012E19D0022E2FD11BE0112E16D0122EAF
:101990002AD119E0B8F5881F19D006DCB8F5803FC8
:1019A00015D0B8F5801F1FD111E0B8F5001F0ED07B
:1019B000B8F5041F18D10AE0CB6815E0CB681B1DF1
:1019C00012E0CB6808330FE0CB680C330CE08B6877
:1019D0002BB1012B4FF0080303D0456104E0042331
:1019E00002E0056100E00023FF2A01D8064601E07D
:1019F00000F104064FEA840501D9A5F12005D6F8C7
:101A0000008007FA05FC28EA0C0803FA05F548EA05
:101A10000508C6F800804D68ED0070D53E4DAE69F2
:101A200046F00106AE61AD6924F0030605F001053C
:101A300000953A4D06EB050CDCF80850A607360F6A
:101A400007FA06F825EA0805DFF8D480404503D1F7
:101A50004FF0000825E052E0DFF8C880404502D191
:101A60004FF001081DE0DFF8C080404502D14FF083
:101A7000020816E0DFF8B480404502D14FF00308B9
:101A80000FE0DFF8AC80404502D14FF0040808E0D9
:101A9000DFF8A080404502D14FF0050801E04FF08B
:101AA000060808FA06F848EA0508CCF808804D68E8
:101AB000D9F80060ED034D4601D5164300E096438A
:101AC0002E604D68DAF80060AD03554601D5164327
:101AD00000E096432E604D68DBF80060ED025D4645
:101AE00001D5164300E096432E604D68DEF8006095
:101AF000AD02754601D5164300E096432E60641C86
:101B00000A681646E2407FF429AFBDE8F88F00006E
:101B100000040140000011100010024000000140CC
:101B200000080140000C0140001001400014014079
:101B300000180140001C01408068084000D00120CE
:101B400070470AB1016170470904FBE701488068EA
:101B50007047000028000020024881680278114484
:101B60008160704728000020074810B5016841F0E7
:101B700010010160032000F075F8002000F006F865
:101B800000F024F8002010BD0020024070B50D4D7B
:101B900004464FF47A712878B1FBF0F00A490968DD
:101BA000B1FBF0F000F0F0FB48B9102C07D2002296
:101BB0002146501E00F036F800206C6070BD0120F8
:101BC00070BD000028000020340000200C4808B53B
:101BD000816941F001018161816901F00101009198
:101BE000C16941F08051C161C06900F0805000902E
:101BF0000448416821F0E06141F08061416008BD26
:101C00000010024000000140002809DB00F01F0224
:101C1000012191404009800000F1E020C0F800114E
:101C200070470000F0B40E4B1B680C46C3F3022350
:101C3000C3F10705042D00D90425191D072901D278
:101C4000002300E0DB1E012606FA05F1491E2140B3
:101C500099409E40761E16403143F0BC01F097BC7F
:101C60000CED00E0064900F0070208684FF6FF039C
:101C7000184040EA0220034A104308607047000001
:101C80000CED00E00000FA0510B52CA401461DCCB7
:101C900086B08DE81D002DA02D4C0068049000201A
:101CA00004292FD00BDC01292FD0022928D100F0E4
:101CB00061F96168C1F38131491C49001EE00829BE
:101CC00020D010291CD161682268D20118D5C1F337
:101CD0008342C9031DF8020009D5616804AAC1F353
:101CE0004041515C1B4AB2FBF1F1484301E01A4903
:101CF00048436168490203D440000321B0FBF1F07E
:101D000006B010BD00F046F9FAE7226AC2F30121DD
:101D1000012903D1920701D5C803F1E7022905D1B2
:101D2000626A920702D549F64040E9E70329E7D104
:101D300021688903E4D54FF22440E1E7020304055A
:101D4000060708090A0B0C0D0E0F10100102000007
:101D50000010024000127A0000093D002DE9F8430E
:101D600005460078354CC00754D0E0690026C00015
:101D700008D4E06940F08050E061E069012600F09D
:101D8000805000902E480168C90512D40168804631
:101D900041F480710160FFF7D9FE074605E000BFFE
:101DA000FFF7D4FEC01B642823D8D8F80000C00574
:101DB000F6D5206A10F4407021D0A98801F4407152
:101DC00081421CD0206A1F49012220F440700A6021
:101DD00000220A602062C00711D0FFF7B7FE074655
:101DE00041F2883808E000BFFFF7B0FEC11B414553
:101DF00002D90320BDE8F883206A8007F4D5206A61
:101E0000696820F44070084320621EB1E06920F048
:101E10008050E0612878800705D56068A96820F4C3
:101E20004040084360602878C00605D5606869694D
:101E300020F48000084360600020DBE700100240CF
:101E400000700040400442422DE9F0470F46050073
:101E500061D0434E306800F00700B84209D23068C4
:101E600020F0070038433060306800F00700B842C7
:101E700051D128683B4C810712D5400703D56068D3
:101E800040F4E06060602878000703D5606840F4A3
:101E9000605060606068A96820F0F00008436060EE
:101EA0002878C00728D06868012810D02168022847
:101EB00010D0890700292EDA616821F0030101435F
:101EC0006160FFF743FE804641F288390DE02168EA
:101ED0008903EFE78901EDE7FFF738FEA0EB080182
:101EE000494502D90320BDE8F0876068696800F0C1
:101EF0000C00B0EB810FEFD1306800F00700B84262
:101F00000BD9306820F0070038433060306800F0AB
:101F10000700B84201D00120E5E72878400705D541
:101F20006068E96820F4E060084360602878000792
:101F300006D56068296920F4605040EAC1006060FD
:101F400000F028F86168084AC1F30311515CC840E9
:101F50000649086006480068FFF718FE0020C2E73F
:101F600000200240001002405A5A000834000020AD
:101F70002C0000200448054900684968044AC1F360
:101F8000C221515CC840704734000020001002405C
:101F90006A5A000812A185B00FC98DE80F0014A07D
:101FA000144A006804905168134801F00C03042B94
:101FB00010D0082B0ED1C1F38343C9031DF80300D1
:101FC0000AD5516804AAC1F34041515C0A4A504302
:101FD000B0FBF1F005B0704708494843FAE700004C
:101FE00002030405060708090A0B0C0D0E0F10105A
:101FF000010200000010024000127A0000093D00BA
:102000002DE9F84F040070D02078C04DC00749D0AA
:102010006868C0F38100012807D06868C0F38100B8
:10202000022809D16868C00306D52868800339D51D
:1020300060680028E7D035E06068B0F5803F0BD0DD
:1020400010B1B0F5A02F11D0286820F4803028609E
:10205000286820F4802002E0286840F4803028605E
:10206000606890B1FFF772FD06460AE0286840F408
:1020700080202860F0E700BFFFF768FD801B642820
:1020800073D828688003F7D50CE0FFF75FFD06469C
:1020900005E000BFFFF75AFD801B6428F0D82868D0
:1020A0008003F7D420789A4E80074FF001094FF053
:1020B000000839D5686810F00C0F07D06868C0F3C5
:1020C0008100022809D16868C00306D42868800707
:1020D00014D52069012808D110E02069B0B1C6F8F4
:1020E0000090FFF733FD074605E00AE1FFF72EFDFC
:1020F000C01B0228C4D828688007F7D52868616902
:1021000020F0F80040EAC10028600DE0C6F8008029
:10211000FFF71CFD074604E0FFF718FDC01B02286F
:1021200023D828688007F7D4207800072CD5794871
:10213000A169D9B1C0F80090FFF708FD074604E097
:10214000FFF704FDC01B02280FD8686A8007F7D587
:1021500071484FF4FA510068B0FBF1F0009000BFF5
:102160000098411E0091FAD20EE080E0C0F8008095
:10217000FFF7ECFC074604E0FFF7E8FCC01B022871
:1021800075D8686A8007F7D42078400760D5E86979
:102190000027C00008D4E86940F08050E861E86991
:1021A000012700F0805000905C480168C90513D4F5
:1021B0000168834641F480710160FFF7C7FC8246E5
:1021C00006E000BFFFF7C2FCA0EB0A0064284ED86F
:1021D000DBF80000C005F5D5E06801280AD008B199
:1021E000052813D0286A20F001002862286A20F010
:1021F000040002E0286A40F001002862E06841F231
:10220000883B98B1FFF7A2FC82460BE0286A40F0B9
:1022100004002862EEE700BFFFF798FCA0EB0A017C
:1022200059455AD8286A8007F6D50CE0FFF78EFC8E
:10223000824605E0FFF78AFCA0EB0A0159454CD81D
:10224000286A8007F6D41FB1E86920F08050E86161
:10225000E06988B36968C1F38101022944D002288A
:10226000C6F8608004D0FFF771FC044638E034E023
:10227000FFF76CFC074604E0FFF768FCC01B022870
:102280002BD828688001F7D4206AB0F5803F05D1AB
:102290006868A16820F4003008436860D4E9080148
:1022A0000843696821F4741108436860C6F86090B7
:1022B000FFF74CFC044606E025E000BFFFF746FCB4
:1022C000001B022809D828688001F7D51BE000BF51
:1022D000FFF73CFC001B022802D90320BDE8F88F61
:1022E00028688001F4D40EE00128F7D06868226ADB
:1022F00000F48031914204D1616A00F47010884288
:1023000001D00120EAE70020E8E7000000100240C9
:10231000000042428004424234000020007000402D
:1023200070B515460E46040007D0A069B0F5807F51
:1023300003D094F8410010B107E0012070BD0020E7
:1023400084F84000204600F01DF804F108012068E0
:10235000FFF70EF83146A2682068FFF73DF8D4E990
:1023600001022946236BFEF7E5FFA168206850F8BB
:10237000212042F0010240F82120012084F8410090
:10238000002070BDFFF794BA10B5401EB0F1807FF9
:1023900001D3012010BD4FF0E02460610F216017D0
:1023A00001F0F5F80020A06107202061002010BD99
:1023B0007047704770B590F83C20012A2CD001245A
:1023C00080F83C40022280F83D2003685A689D68EE
:1023D00022F070060A6832435A60104B02689A4233
:1023E0000ED00F4B9A420BD0B2F1804F08D00D4B5C
:1023F0009A4205D00C4B9A4202D00C4B9A4204D11F
:10240000496825F080031943916080F83D40002120
:1024100080F83C10084670BD022070BD002C0140C1
:10242000003401400004004000080040000C00405F
:1024300010B5040003D094F83D0010B107E001206E
:1024400010BD002084F83C00204600F01FF8022058
:1024500084F83D00211D206801F03EF8012084F839
:10246000460084F83E0084F83F0084F8400084F879
:10247000410084F8420084F8430084F8440084F862
:10248000450084F83D00002010BD000008B5154A45
:102490000168154891420ED1C16941F01001C16136
:1024A000C069002200F01000009011463620FFF7AE
:1024B000B9FB362010E00D4A914211D1C16941F0BB
:1024C0002001C161C069002200F020000090114687
:1024D0003720FFF7A7FB3720BDE80840FFF794BB84
:1024E00008BD000000100040001002400014004031
:1024F00090F83D10012901D001207047022180F899
:102500003D1000680E4988420ED00E4988420BD01B
:10251000B0F1804F08D00C49884205D00B49884261
:1025200002D00B49884204D1816801F007010629D5
:1025300003D0016841F001010160002070470000F4
:10254000002C01400034014000040040000800401D
:10255000000C004090F83D10012901D00120704787
:10256000022180F83D100168CA6842F00102CA6089
:1025700000680E4988420ED00D4988420BD0B0F158
:10258000804F08D00B49884205D00B49884202D0C1
:102590000A49884204D1816801F00701062903D065
:1025A000016841F00101016000207047002C0140EA
:1025B000003401400004004000080040000C0040CE
:1025C000704770B50446006801694FF00005C943C3
:1025D000890715D4C168C943890711D4E91E01616F
:1025E00001202077206880698007204602D0FFF70D
:1025F000E7FF04E000F098F8204600F096F8257711
:1026000020680169C943490717D4C168C94349070C
:1026100013D46FF0040101610220207720688069E3
:1026200010F4407F204602D0FFF7CAFF04E000F01C
:102630007BF8204600F079F8257720680169C943C6
:10264000090716D4C168C943090712D46FF00801FD
:102650000161042020772068C0698007204602D0ED
:10266000FFF7AEFF04E000F05FF8204600F05DF8F1
:10267000257720680169C943C90617D4C168C943D1
:10268000C90613D46FF0100101610820207720687B
:10269000C06910F4407F204602D0FFF791FF04E0AC
:1026A00000F042F8204600F040F8257720680169E4
:1026B000C943C90708D1C168C943C90704D1891EE4
:1026C0000161204600F032F820680169C94309061B
:1026D00009D4C168C943090605D46FF080010161BE
:1026E0002046FFF765FE20680169C943490609D401
:1026F000C168C943490605D46FF040010161204615
:1027000000F015F820680169C94389060BD4C16837
:10271000C943890607D46FF0200101612046BDE856
:102720007040FFF746BE70BD7047704770477047F6
:10273000FEE730B5002405462146204600F068F843
:102740004FF0D841222008804FF496304D80641C11
:102750008442FBD330BD0000203AD2B2034B02EBDF
:10276000420203EB021200F019B800008A48000888
:10277000F0B50E460746002540F23F1407E021461B
:102780003846FFF7E9FF103C6D1CA4B2761C327886
:10279000002A01D0142DF2D3F0BD00002DE9F04F36
:1027A00017468B460446002500F032F8DFF84C80CF
:1027B0004FF0220A4FF001094FF0D846A6F800A0CA
:1027C000002049464FEA080237F8153001FA00FCAC
:1027D00013EA0C0F01D1538800E013887380401C6A
:1027E0001028F1D3641CE4B25946204600F010F8DA
:1027F0006D1C182DE2D3BDE8F08F00000000002012
:1028000001B5BDF800000149488008BD0000002066
:102810000B4600B50146202000F00EF81946212095
:102820005DF804EB00F008B801B5BDF800000149FF
:10283000088008BD000000204FF0D8421080518071
:10284000704700003EB500241148009401940294A2
:102850000E498460016004730475012505614FF41D
:1028600060214460C161FEF75BFE08B172B6FEE70D
:102870000D20CDE90005694602940548FEF7CEFD1E
:10288000002801D072B6FEE73EBD000000240140E2
:102890003800002000B587B01C216846FDF763FDB5
:1028A00017484FF02041102201601649416006216F
:1028B00081600021C160C0E904128161C16113021D
:1028C0000162C0E90913C1620163416381630F20A2
:1028D000FF230090CDE90103CDE903021120CDE9EA
:1028E0000501002269460648FFF71AFD08B172B6D5
:1028F000FEE70548C16941F48061C16107B000BDD0
:10290000F8000020040100A0000001402DE9F04182
:1029100086B000243748009401940294039481699E
:1029200041F040018161816901F0400104918169B8
:1029300041F080018161816901F080010491816928
:1029400041F010018161816901F0100104918169F8
:1029500041F020018161816901F0200104918169C8
:1029600041F4807181618069234F00F4807004908C
:10297000002254213846FFF7E4F8DFF88080002277
:1029800044214046FFF7DDF8542001250226CDE919
:102990000005CDE9024669463846FEF7D1FF2820FA
:1029A0008DE8310069463846FEF7CAFF0A208DE8F7
:1029B000310069464046FEF7C3FF4420CDE90005DB
:1029C000CDE9024669464046FEF7BAFF48F280006C
:1029D000CDE9000469460A480294FEF7B1FF0820D9
:1029E0008DE8310069460748FEF7AAFF06B0BDE84A
:1029F000F08100000010024000180140001C01405E
:102A00000020014000140140FEE7FEE7704708B5D2
:102A10000020ADF800000520FEF738FF43F2080162
:102A2000E320FFF709FF1221E720FFF705FF41F23E
:102A30003121EF20FFF700FF4FF480710120FFF7F5
:102A4000FBFE4FF4E0610220FFF7F6FE41F2300199
:102A50000320FFF7F1FE00210420FFF7EDFE40F216
:102A600007210820FFF7E8FE00210920FFF7E4FE18
:102A700000210A20FFF7E0FE00210C20FFF7DCFE1A
:102A800000210D20FFF7D8FE00210F20FFF7D4FE14
:102A900000211020FFF7D0FE07211120FFF7CCFE08
:102AA00000211220FFF7C8FE00211320FFF7C4FE0B
:102AB0001420FEF7EBFE41F290611020FFF7BCFE00
:102AC00040F227211120FFF7B7FE0520FEF7DEFEBA
:102AD0001D211220FFF7B0FE0520FEF7D7FE4FF4B0
:102AE00000611320FFF7A8FE14212920FFF7A4FEA0
:102AF0000B212B20FFF7A0FE0520FEF7C7FE0021CB
:102B00002020FFF799FE00212120FFF795FE0721E5
:102B10003020FFF791FE40F207713120FFF78CFE65
:102B200006213220FFF788FE40F204713520FFF7BE
:102B300083FE41F604713620FFF77EFE0421372024
:102B4000FFF77AFE00213820FFF776FE40F206718B
:102B50003920FFF771FE40F201713C20FFF76CFE57
:102B60000F213D20FFF768FE00215020FFF764FE93
:102B7000EF215120FFF760FE00215220FFF75CFE9D
:102B800040F23F115320FFF757FE4FF427416020DA
:102B9000FFF752FE01216120FFF74EFE00216A205F
:102BA000FFF74AFE00218020FFF746FE002181202A
:102BB000FFF742FE00218220FFF73EFE0021832026
:102BC000FFF73AFE00218420FFF736FE0021852022
:102BD000FFF732FE10219020FFF72EFE00219220F9
:102BE000FFF72AFE03219320FFF726FE4FF488719A
:102BF0009520FFF721FE00219720FFF71DFE002101
:102C00009820FFF719FE41F218010320FFF714FE88
:102C1000BDE8084040F273110720FFF70DBE704772
:102C2000FEF79ABF30B595B028216846FDF79BFBAB
:102C300014210AA8FDF797FB18210FA8FDF793FBB5
:102C40000121080400240491CDE90010CDE9080415
:102C50000294022507956846FFF7D2F908B172B6CB
:102C6000FEE70F20CDE90A054FF4A060CDE90C4046
:102C700000210AA80E94FFF7E7F808B172B6FEE744
:102C80000FA80F951194FFF769F8002801D072B6CC
:102C9000FEE715B030BD704710B51248FFF791FC44
:102CA0000A211148FEF7FAFC002819D10E48FEF758
:102CB00033FC01F02DFC01F0CFFA0C4A0C4B00F074
:102CC00077FF00F09BFE04460748FEF77FFD0949A9
:102CD000204601F063FD084901F058FB07490860F0
:102CE00010BD00006800002038000020C9D2364422
:102CF000E7E4F33F0000F041000020410C00002019
:102D00002DE9F05FF748FFF75CFCDFF8DC9399F8FA
:102D10000000042802D1012189F800100025DFF805
:102D2000CCA3DFF8CC830324DFF8C8B308E0012F7D
:102D300006D0022F78D0032F77D0042F76D177E2F8
:102D40000022042147464046FEF7FBFE9BF80000A8
:102D50005E4605282AD2DFE800F003090F1821009B
:102D600008213846FEF7E8FEA0B11FE008213846EA
:102D7000FEF7E2FE70B116E0DF490120087099F815
:102D80000010491C89F80010347008213846FEF7FD
:102D9000D3FE58B13078401C307007E00821384627
:102DA000FEF7CAFE08B1357000E03470D34E3078BB
:102DB00005282AD2DFE800F003090F18210020219E
:102DC0003846FEF7B9FEA0B11FE020213846FEF7D5
:102DD000B3FE70B116E0C8490220087099F80000EF
:102DE000401C89F80000347020213846FEF7A4FE0C
:102DF00058B13078401C307007E020213846FEF78B
:102E00009BFE08B1357000E03470BD4E3078052867
:102E10002CD2DFE800F0030C121A23000221B9487B
:102E2000FEF78AFEB0B121E052E011E1F2E10221A9
:102E3000B448FEF781FE68B115E0AF48047099F818
:102E40000010491C89F8001034700221AD48FEF7CB
:102E500073FE58B13078401C307007E00221A94859
:102E6000FEF76AFE08B1357000E03470A64E307887
:102E7000052825D2DFE800F003090F131C00082104
:102E8000A048FEF759FE78B11AE008219D48FEF7E8
:102E900053FE48B111E09D490A20087034700821A2
:102EA0009848FEF749FE58B13078401C307007E072
:102EB00008219448FEF740FE08B1357000E03470F8
:102EC000012204213E463846FEF73BFE0227B0466B
:102ED000002210214046FEF734FE9AF800105646B4
:102EE00005292AD2DFE801F003090F182100082183
:102EF0004046FEF721FEA0B11FE008214046FEF744
:102F00001BFE70B116E07C490420087099F800108F
:102F1000491C89F80010347008214046FEF70CFE69
:102F200058B13078401C307007E008214046FEF769
:102F300003FE08B1357000E03470754E3078052816
:102F40002AD2DFE800F003090F18210020214046B3
:102F5000FEF7F2FDA0B11FE020214046FEF7ECFD98
:102F600070B116E064490520087099F80010491CFA
:102F700089F80010347020214046FEF7DDFD58B17D
:102F80003078401C307007E020214046FEF7D4FD29
:102F900008B1357000E034705E4E307805282AD2D2
:102FA000DFE800F003090F18210002215548FEF761
:102FB000C3FDA0B11FE002215248FEF7BDFD70B174
:102FC00016E04D490620087099F80000401C89F869
:102FD0000000347002214B48FEF7AEFD58B1307846
:102FE000401C307007E002214648FEF7A5FD08B1FD
:102FF000357000E03470484E3078052825D2DFE87F
:1030000000F003090F131C0008213E48FEF794FD51
:1030100078B11AE008213B48FEF78EFD48B111E077
:103020003A490B200870347008213648FEF784FDB9
:1030300058B13078401C307007E008213148FEF765
:103040007BFD08B1357000E0347001221021DEE014
:10305000002240214046FEF774FD304E30780528AE
:103060002AD2DFE800F003090F18210008214046AA
:10307000FEF762FDA0B11FE008214046FEF75CFDAF
:1030800070B116E01C490720087099F80010491C1F
:1030900089F80010347008214046FEF74DFD58B104
:1030A0003078401C307007E008214046FEF744FDB0
:1030B00008B1357000E03470194E307805284BD2D5
:1030C000DFE800F003093039420020214046FEF7D6
:1030D00033FD30B140E020214046FEF72DFD00B128
:1030E00037E02DE0B00000200A000020140000208E
:1030F00000180140110000200800002012000020EC
:1031000013000020001C01401A00002009000020CC
:1031100015000020160000201B00002017000020D2
:1031200018000020DE490820087099F80010491C9A
:1031300089F80010347020214046FEF7FDFC58B19C
:103140003078401C307007E020214046FEF7F4FC48
:1031500008B1357000E03470D24E307805282AD29C
:10316000DFE800F003090F1821000221CE48FEF726
:10317000E3FCA0B11FE00221CB48FEF7DDFC70B1FB
:1031800016E0C7490920087099F80010491C89F811
:10319000001034700221C448FEF7CEFC58B13078DC
:1031A000401C307007E00221BF48FEF7C5FC08B1A3
:1031B000357000E03470BD4E3078052825D2DFE848
:1031C00000F003090F131C000821B748FEF7B4FCF8
:1031D00078B11AE00821B448FEF7AEFC48B111E01E
:1031E000B3490C20087034700821AF48FEF7A4FCE6
:1031F00058B13078401C307007E00821AA48FEF72B
:103200009BFC08B1357000E034700122402140463B
:10321000FEF797FC7F1C052FFFF689ADA54EDFF862
:1032200098824FF40047307880B3012873D0C4E00F
:10323000002204219C48FEF784FCA04E307805282B
:1032400026D2DFE800F003090F131C0008214046D6
:10325000FEF772FC78B11BE008214046FEF76CFCDB
:1032600048B111E092490D200870347008214046A1
:10327000FEF762FC60B13078401C307008E0082135
:103280004046FEF759FC10B1357001E087E034701C
:103290008B4E3078052829D2DFE800F003090F179C
:1032A000200020214046FEF747FC98B11EE0202177
:1032B0004046FEF741FC68B115E07948057099F881
:1032C0000000401C89F80000347020214046FEF7C1
:1032D00033FC58B13078401C307007E02021404664
:1032E000FEF72AFC08B1357000E03470754E307876
:1032F000052826D2DFE800F0030910141D00022182
:103300006948FEF719FC80B11BE002216648FEF710
:1033100013FC50B112E048E065490E20087034708B
:1033200002216148FEF708FC58B13078401C30702B
:1033300007E002215C48FEF7FFFB08B1357000E0B2
:103340003470614E3078052825D2DFE800F003099B
:103350000F131C0008215448FEF7EEFB78B11AE069
:1033600008215148FEF7E8FB48B111E050490F2011
:103370000870347008214C48FEF7DEFB58B13078F5
:10338000401C307007E008214748FEF7D5FB08B124
:10339000357000E0347001220421434838E7394693
:1033A0004046FEF7C9FB28B107E039464046FEF724
:1033B000C3FB40B93078401C30703078032804D00B
:1033C00004280BD011E035700FE039464046FEF777
:1033D000B3FB50B13078401C307006E039464046AF
:1033E000FEF7AAFB0028EED13470384E384F307803
:1033F00010B1012806D00DE008213846FEF79CFBED
:1034000028B107E008213846FEF796FB40B930782E
:10341000401C30703078032804D004280BD011E011
:1034200035700FE008213846FEF786FB50B1307842
:10343000401C307006E008213846FEF77DFB00286E
:10344000EED13470234E307810B1012806D00DE053
:1034500080214046FEF770FB28B107E080214046FE
:10346000FEF76AFB60B93078401C30703078032872
:1034700009D0042805D180214046FEF75DFB60B1EC
:103480003570BDE8F09F80214046FEF755FB0028CF
:10349000F7D03078401C3070F3E73470F1E700006B
:1034A0000800002019000020001C01401C00002022
:1034B0000900002004000020002001401F0000201F
:1034C000100000201E0000201D000020050000202C
:1034D0000014014006000020F0B502681C4B1D4D91
:1034E0001D4E1E4F1E4C4FF0804C984209D0A042FA
:1034F00007D0604505D0A84203D0B04201D0B84201
:1035000004D122F0700E4A6842EA0E02984209D0B5
:10351000A04207D0604505D0A84203D0B04201D0F8
:10352000B84203D122F44075CA682A434D6922F09B
:1035300080022A4302608A68C2620A6882629842F4
:1035400001D0A04201D10969016301214161F0BDAF
:10355000002C01400004004000080040000C004026
:1035600000340140FEE7490050EAC12018BF0420A2
:103570004A0D18BF40F0010040F2FF72B2EB515FFC
:1035800008BF40F00200012808BF05207047090766
:10359000090E002804DB00F1E02080F800147047D9
:1035A00000F00F0000F1E02080F8141D7047303863
:1035B0000A2801D2012070470020704792B0FEF720
:1035C000D3FAFFF72FFBFFF7A1F90024D648D5491E
:1035D0000094019402C0092141F63F7532C0846015
:1035E0001038FEF725FF08B172B6FEE70094694671
:1035F000CD480194FEF7DEFE08B172B6FEE7FFF794
:1036000049F9FFF71FF9C848C849483800940194A0
:1036100002C041F2873132C084601038FEF708FFE3
:1036200008B172B6FEE7C048A14600946946483822
:103630000194FEF7BFFE08B172B6FEE7BA48FEF786
:1036400089FFB948FEF754FFB7487838FEF7BEF84F
:10365000B5484838FEF77EFFB3484838FEF748FFC4
:10366000DFF8CC82B34E0025FFF7D1F90020FFF739
:1036700060F80020FFF7C4F84FF4FC60FFF7D4F8BF
:10368000ADA10020FFF774F8B1A11820FFF770F882
:103690000020FFF7B5F84FF47840FFF7C5F8B249BE
:1036A0000020CDE90001B1A2142102A8FCF7BAFD67
:1036B00002A94820FFF75CF8B2490020CDE90001DB
:1036C000B1A2142107A8FCF7ADFD07A9A820FFF7B8
:1036D0004FF8DFF8CCB2B34CB34F4FF6FF7A6078B7
:1036E0000A286AD10020FFF78BF802A94820FFF7CB
:1036F0003FF85046FFF784F807A9A820FFF738F8ED
:10370000A078012804D002280ED0032847D128E051
:10371000207800F0A5FB5A46A44B00F0B5FB00F062
:103720006DF9064600253AE0E80738D1A049304651
:1037300000F036FF0190207800F092FB5A469B4B38
:1037400000F0A2FB06460091019800F085FD32468C
:10375000009B00F085F900F051F96D1C0646EDB2B2
:103760001DE0E8071BD09249304600F019FF019098
:10377000207800F075FB5A468C4B00F085FB06461E
:103780000091019800F068FD3246009B00F068F956
:1037900000F034F96D1C0646EDB284F80290304614
:1037A00000F05AFDCDE9000177A2142107A8FCF72B
:1037B00039FD07A9A820FEF7DBFF60780B286DD143
:1037C0005046FFF71DF802A94820FEF7D1FF002060
:1037D000FFF716F807A9A820FEF7CAFFA07801286E
:1037E00004D002280ED0032847D128E0207800F02A
:1037F00037FB5A466D4B00F047FB00F0FFF8804660
:1038000000253AE0E80738D16949404600F0C8FE93
:103810000190207800F024FB5A46644B00F034FB02
:1038200080460091019800F017FD4246009B00F091
:1038300017F900F0E3F86D1C8046EDB21DE0E807D3
:103840001BD05B49404600F0ABFE0190207800F0B1
:1038500007FB5A46554B00F017FB80460091019834
:1038600000F0FAFC4246009B00F0FAF800F0C6F8BF
:103870006D1C8046EDB284F802905046FEF7C0FF02
:10388000404600F0E9FCCDE9000138A2142102A86D
:10389000FCF7C8FC02A94820FEF76AFF60780A28F6
:1038A00014D060780B2811D084F8009084F802902E
:1038B0000020FEF7A5FF02A94820FEF759FF0020CF
:1038C000FEF79EFF07A9A820FEF752FF0020FEF793
:1038D00097FF606800F0C0FCCDE9000135A214211B
:1038E0000CA8FCF79FFC0CA97820FEF741FF31469D
:1038F000404600F053FF616800F01EFF03D23868B5
:1039000040F0400038603146404600F0D1FC61682C
:1039100000F012FEBFF4E3AE386820F040003860DB
:10392000DDE6000000140040B00000200010004060
:103930000000A0410000A040202020202020205393
:10394000595354454D202020202020200000000005
:1039500020202020204F47525A4557414E494120B0
:1039600020202020000000000000344054656D70CD
:103970002E205A61642E203A20252E31662A4320BB
:103980002020000000001440486973746572657A55
:1039900061203A20252E31662A4320202000000095
:1039A0009A999999080000200C1C01409999B93FF7
:1039B0000000204154656D702E20416B742E203A1A
:1039C00020252E31662A43202020202000000000E0
:1039D00010B500290AD00878002807D00548784497
:1039E000FDF746F8002801D0002010BD02487844B9
:1039F00010BD00004A2100004221000021F00042D9
:103A0000A2F16052B2F5801F01F0004328BFD2F14D
:103A10007F6C0BD95FEA001C43EAC20242EB507094
:103A200018BF704728BF20F001007047B2F5801F13
:103A3000BCBF184670474FEA410C1CF5001F02D26C
:103A4000084600F074BE70B500F0C8FA00000089A6
:103A5000FFF7F6BF4FF00040A0F580007047000070
:103A600010B591EA030F48BF83F0004300F11283C1
:103A7000841A71EB030C05D2121943EB0C03001BE3
:103A800061EB0C01DFF824E14FEA1154A4EB135C65
:103A90001EEA430F18BF9EEA445F73D023EA0E0369
:103AA000DCF1200E21EA045143F4801332D322FAD0
:103AB0000CFE10EB0E0023FA0CFE41EB0E01CCF1D4
:103AC000200E03FA0EFE10EB0E0051F10001B1F5CD
:103AD000801FCCF1200E32D201EB045112FA0EF20B
:103AE000BDE8104058BF7047401C38BF5FEA420233
:103AF00018BF7047002814BF20F0010041F10001F9
:103B00004FEA410313F5001F38BF7047A1F1C041D0
:103B100000F0B2BA012A43EB0302ACF1200CDCF155
:103B20001F0E32BF4FF0000E23FA0CF310EB030010
:103B300041EB0451B4EB115FD0D0A1EB045101F57E
:103B4000801149085FEA300001EB04510ED350F1B7
:103B5000000038BF12FA0EFE08D1BDE81040C9E7D8
:103B6000401C38BF5FEA4202CAD1C3E7BDE810403B
:103B70004FEA410313F5001F38BF7047A1F1C04160
:103B800000F07ABA9EEA445F08D011EA5E0FBDE801
:103B9000104004BF01F0004100207047BDE8104014
:103BA00070B500F01BFA00BF64FBBE3E0000E0FFF2
:103BB0002DE9C04130B4DFF8A0C23CEA111418BFAF
:103BC0003CEA131400F0EC8081EA03051CEA1114AE
:103BD00044EAD57418BF1CEA131500F0C780A4EBA3
:103BE00005044FF0004545EAC12145EAC32341EAF7
:103BF000505143EA525304F17F74994204F5003462
:103C00004FEAC0204FEAC22208BF904200F09C80D9
:103C10004FEA13650FF24016765D4FEA134506FB37
:103C200005F7C7F1807706FB07F74FEAD737A7FB01
:103C300003687642C8F58038A7FB06CE38BFA8F1E6
:103C4000010807FB08E64FF0000EA6FB028CE6FB1E
:103C500003CEDCF1000CCEF1004E38BFAEF1010E08
:103C6000A6FB0C584FF000074FF00005E6FB0E874F
:103C7000A1FB08C6A0FB07CE16EB0E0645F100051A
:103C8000E1FB076515F1E04E7EBFA4F580345FEAE5
:103C900046066D4116F1800745F100054FEA1727EA
:103CA0004FEA066647EA0567A6F1DE46B6F1805F91
:103CB0004FEA15251FD9384624F0010C05EBC471D5
:103CC000BCF1FE6F01EB0C1102D8F0BCBDE8008125
:103CD00024425CBF01F5801E9EEAC47F02D4F0BC82
:103CE000BDE80081244238D4F0BCA1F1C041BDE858
:103CF000004100F0C1B94FEAD22242EA43524FEAF2
:103D0000D323A7FB02864FEAD02040EA415007FBAD
:103D100003661EEA0E0F4FEAD12105FB026658BF6B
:103D2000A6EB0056B6EB00564FEA520E4EEAC37EA3
:103D300018EB0E0E56EB530EBDD518EB02085E4184
:103D40007F1C55F10005B6E74FF480154FF00007D2
:103D50004FF000064FF00008ADE7F0BC4FF0000058
:103D600001F1C04101F00041BDE8008111EA0C1FE2
:103D70000CEA131500D00CE013EA0C1F00F02580AC
:103D80004FF00000F0BC81EA030101F00041BDE802
:103D90000081F0BCBDE8004181EA030100F06CB98C
:103DA000F0BCBDE8004170B500F018F9097EFC3E9A
:103DB00000F007B881EA03014FF0000001F0004174
:103DC000704781EA030100F057B9F0BCBDE800413B
:103DD0004FF0000021497047FFFDFBF9F7F5F4F2C1
:103DE000F0EEEDEBE9E8E6E4E3E1E0DEDDDBDAD896
:103DF000D7D5D4D3D1D0CFCDCCCBCAC8C7C6C5C4F4
:103E0000C2C1C0BFBEBDBCBBBAB9B8B7B6B5B4B30A
:103E1000B2B1B0AFAEADACABAAA9A8A8A7A6A5A4F5
:103E2000A3A3A2A1A09F9F9E9D9C9C9B9A999998B9
:103E30009797969595949393929191908F8F8E8E5C
:103E40008D8C8C8B8B8A89898888878786858584E9
:103E500084838382828181800000FF070000F87FD5
:103E6000B0FA80F310FA03F10AD0C3F11D0303F591
:103E700080634FEA41504FEA035202EBD121704771
:103E80004FF0000070470000DFF848C170B51CEA31
:103E9000111E1EBF1CEA13159EEA0C0F95EA0C0FAB
:103EA00000F06F8081EA030423EA4C134EEAD47ECB
:103EB00021EA4C1141F4801143F48013AE44A1FB7C
:103EC000024CA0FB0365AEF17F7E361955EB0C0565
:103ED000A1FB034C4CF10003A0FB021C16EB0C06EB
:103EE000654153F10003094218BF46F0010613F47F
:103EF000007F0BD14FEA03314FEA0530340341EA2A
:103F0000155140EA16506FF003020AE04FEAC32150
:103F10004FEAC520F40241EA555140EA56506FF08D
:103F2000020202EB2E4201EB025585EACE710AD065
:103F30005FEA440C18BF24F0004450F1000041F146
:103F4000000120EAD47040F2FE7C624500D270BDD0
:103F5000A84214BF4FF080444FF04044002E08BFE9
:103F60000024BEF1806FA8BFA1F1C041BDE8704040
:103F700080F282804FF0000001F1C04101F0004169
:103F800070479EEA0C0F0CEA131518BF95EA0C0F48
:103F900006D04FF0000081EA030E0EF0004170BD24
:103FA00000F01CF88900013E00F007B800F009B8E5
:103FB0004FEA430C5FEA5C5C08D081EA030100F041
:103FC0005BB84FEA410C5FEA5C5CF6D14FF0000051
:103FD000014970470000FF070000F87F0EF1020E54
:103FE0002EF0030E5EF8046B364205D4012A43EB33
:103FF000030515F5001F12D8012841EB010C1CF533
:10400000001F0CD80ED14FEAD17C15F5001F0CEB28
:104010004C0C0CF1020C08BF4CEBD37C04E04FF0CD
:10402000080C01E04FEAD37C0CEB4C0526FA05F6B0
:1040300006F00706B6F1040C06D20EEB860CBDE8BE
:1040400070404CF0010C6047DFE80CF0090B0202F5
:104050004FF000414FF00000A1F5002170BD19465E
:104060001046012851EB010418BFD4F5001484BF99
:10407000002001F0004170BD0808A0F500114FEAD2
:104080003101704710B591EA030F48BF83F0004338
:104090003FF5EEAC841A71EB030C07D212198CF0C9
:1040A000004C43EB0C03001B61EB0C01DFF8A4E1B7
:1040B0004FEA1154A4EB135C1EEA430F18BF9EEAAB
:1040C000445F00F0B08023EA6E03524221EA0451BB
:1040D000C3EB6E0338BF5B1EDCF1200E25D322FA42
:1040E0000CFE10EB0E0043FA0CFE41EB0E01CCF17E
:1040F000200E03FA0EFE10EB0E0051F10001CCF180
:10410000200E29D412FA0EF201EB0451BDE8104042
:1041100058BF7047401C1CBFB2F1004F70470028C9
:104120000CBF491C20F00100704712EB020E43EB5C
:10413000030218BF4FF0010E4EEA4202ACF1200C10
:10414000DCF11E0E54D943FA0CFE10EB0E0051F1B7
:10415000FF31CCF11E0ED5D50EF1010E12FA0EFE76
:10416000404141EB010101EB445C5FEA5C5C10D92A
:1041700010EBDE7001EB045138BFBEF1004FBDE81B
:10418000104018BF704700280CBF491C20F00100E8
:10419000704730D24FEAD42C11F5001124F400649A
:1041A0001BD0B1FA81F20B3AA41AA41ED2F120035B
:1041B000914030FA03F31943904001EBCC71002C8D
:1041C00001EB0451BDE81040A8BF704701F1C041A8
:1041D0004FF0000001F000417047B0FA80F310FA90
:1041E00003F100D110BDE41A173C4805C90AE4E701
:1041F00001EB045110BD491001EB0451BDE8104022
:104200004FEA300002E04FF0000170474A0008BF5B
:104210000042F8D0B2F5001F28BF704701F00041FE
:104220004FF0000070479EEA445F07D011EA5E0F2E
:10423000BDE8104004BF002100207047BDE81040D9
:1042400070B5FFF7CBFE00BF40DFF63E83F00041C4
:10425000104670470000E0FF43004FEAD30C4FEADE
:104260003C0C43401FBF40070CF1605113F0FE4F60
:1042700070471CF0006F03D100200CF00041704724
:104280000CF0004343EA507010B540EACC0000F057
:1042900008FA00BF000000924FEA0001FFF7ECBEF1
:1042A0004FF000414FF00000A1F5002170470000E1
:1042B00090EA010F48BF81F0004100F17682421A76
:1042C0003CBF801A89184FEAD0524FF07F4C1CEA4D
:1042D000410FA2EBD15318BF9CEA026F00F03B8064
:1042E0004FF0004C4CEA00204CEA012121FA03FC7B
:1042F00010EB0C0C1ED202F1FF325FEA1C2040EBE7
:10430000C25038BF70471CF07F0F4FEA400C18BFF7
:10431000BCF17F4F38BF7047C3F12003994008BFFD
:1043200020F00100BCF17F4F38BF7047A0F1C040C2
:1043300000F0FDB94FEA3C00000A40EBC25028BF34
:104340001CF0FF0F4FEA400CE6D018BFBCF17F4FC6
:1043500038BF7047EAE79CEA026F05D010EA5C0FAD
:1043600008BF00F00040704710B500F09AF900BF98
:1043700064FBBE3E401058BFC0F14040491058BFDA
:10438000C1F140418142EFF3008070474FF47F0C50
:104390001CEAD0121EBF1CEAD11392EA0C0F93EA5A
:1043A0000C0F00F0858090EA010F48BF42F4807244
:1043B00040F4000C41F400002CF07F4120F07F40DD
:1043C00000B58142A2EB03020FF2081CACEB504E89
:1043D000C0F100009EF800E04FEA4E0E00FB0EFC1C
:1043E00038BF49004FEA2C1C02F5FA020CFB0EF311
:1043F0004FEACE1E4FEA112C4FEAC1210EEB635E4D
:1044000042EB22420EFB0CFC4FEA1C5300FB031153
:104410004FEA112C4FEA01310EFB0CFC4FEADC4C49
:1044200000FB0C11C14228BF09184CEB03335DF8A7
:1044300004EB10EB410143EBC250B2F57C0F38BFE7
:10444000704729D512F0F00F1CBF00F1C04000F0FA
:1044500000407047008182838485868788898B8CA1
:104460008D8E8F919293959697999A9C9D9FA0A2DD
:10447000A3A5A7A8AAACAEB0B2B3B5B7B9BCBEC02D
:10448000C2C5C7C9CCCED1D4D7D9DCDFE2E6E9ECCE
:10449000F0F3F7FAFE0000004FEA400C0CF1807CCC
:1044A000BCF17E4F28BF7047B0F1C04000F03FB96B
:1044B00090EA010F0CEAD11348BF42F480726245C2
:1044C00038BF634507D213F47F0F16D080EA01008E
:1044D00000F00040704710B500F0E3F8097EFC3EA4
:1044E00000F005B880EA010000F00040704780EA63
:1044F000010000F0004000F01AB912F47F0F04BF71
:104500000248704780EA010000F011B90000C07F46
:10451000B0FA80F310FA03F2C3F19D030AD0D90573
:1045200001EB1220530638BF704700F1010008BFAD
:1045300020F001007047000050EA010C00F11380E8
:104540001CF5000F58BFBCF5000F01D4884270471E
:1045500007D710F5000F58BF11F5000F15D488428A
:104560007047894270471CF5000F04D5BCF5000F59
:10457000F7D5814270474FF0807C1CEB400F38BF6D
:104580001CEB410F01D28142704710B500F089F851
:10459000922449004FF000504FF08051FFF7EABEDF
:1045A0004FF47F0C1CEAD0121EBF1CEAD11392EA12
:1045B0000C0F93EA0C0F00F0478090EA010F48BF00
:1045C00042F480724FF0004C4CEA00204CEA01218A
:1045D00002EB0302A0FB0113A2F50002002918BFA1
:1045E00043F001035B0028BF4FEA330342EB224252
:1045F0005FEA132C4CEBC2502EBFBCEB436FB2F5FD
:104600007C0F70474FEA036CBCF1004F08BF20F0ED
:104610000100B2F57C0F38BF70470BD582F0FF0266
:1046200012F5803FC8BF704700F1C040D8BF00F00E
:104630000040704700F5000C5FEA4C0C48BF704723
:10464000B0F1C04000F073B890EA010F0CEAD1134A
:1046500048BF42F48072624538BF634504D280EAA5
:10466000010000F00040704710B500F01AF800BFDC
:104670008900013E00F007B800F009B85FEA410C7C
:104680005FEA1C6C08D080EA010000F050B85FEAD5
:10469000400C5FEA1C6CF6D14FF00040A0F58000A2
:1046A00070470EF1020E2EF0030E5EF8044B24420A
:1046B00004D44FEA4102B2F17F4F11D84FEA4003D0
:1046C000B3F17F4F0CD80ED14FEAD07CB2F17F4FBF
:1046D0000CEB4C0C0CF1020C08BF4CEBD17C04E051
:1046E0004FF0080C01E04FEAD17C0CEB4C0324FAAC
:1046F00003F404F00704B4F1040C06D20EEB840CAE
:10470000BDE810404CF0010C6047DFE80CF00708F2
:1047100002024FF00040A0F5800010BD08464200A4
:1047200018BFD2F1807288BF00F0004010BDFF2199
:1047300041EAD050C005704751EA000C00F11380E7
:104740001CF5000F58BFBCF5000F01D48142704723
:1047500007D711F5000F58BF10F5000F15D481428F
:104760007047894270471CF5000F04D5BCF5000F57
:10477000F7D5884270474FF0807C1CEB410F38BF63
:104780001CEB400F01D28842704780EA010081EAA9
:10479000000180EA0100FFF7F8BE000090EA010F77
:1047A00048BF81F000413FF58AAD421A04D882F03B
:1047B0000042A0EB020011444FEAD0524FF07F4C70
:1047C0001CEA410FA2EBD15318BF9CEA026F4AD0FA
:1047D0004FF0004C4CEA00204CEA012121FA03FC86
:1047E000B0EB0C0C0FD412F0FE0F36D05FEA4C0089
:1047F0001DD5001240EBC25038BF70471CF03F0F70
:1048000018BF70470BE0A2F101025FEA1C2040EBE9
:10481000C25038BF70471CF07F0F18BF7047C3F1FC
:104820002003994014BF401E20F00100704780080B
:104830004FEA122308BF7047B0FA80FCA2EB0C02CB
:10484000CCF1280C60FA0CF093EA122F04BF00EBB5
:10485000C25070474FEAC3707047130A5FEADC101A
:1048600008BF7047F6E79CEA026F04D010EA5C0FBD
:1048700008BF0020704710B5FFF713FF40DFF63E7A
:1048800081F000407047FBF76FBE000000000000A1
:104890000000000000000000000000000000000018
:1048A0000000000000000000000000000000000008
:1048B00000000000000000000000000080018001F6
:1048C00080018001800180018001800180018001E0
:1048D0008001800180010000000080018001000053
:1048E0000000000000000000000000000000CC00FC
:1048F000CC00CC00CC00CC00CC00000000000000BC
:1049000000000000000000000000000000000000A7
:104910000000000000000000000000000000000097
:10492000000000000000600C600C600C30063006D7
:10493000FE1FFE1F300638071803FE1FFE1F180358
:1049400018038C018C018C01000000008000E00342
:10495000F80F9C0E8C1C8C188C009800F801E00756
:10496000800E801C8C188C189C18B80CF00FE0037B
:104970008000800000000000000000000000000037
:104980000E181B0C110C11061106110311039B01CB
:104990008E01C038C06C60446044304430441844D8
:1049A000186C0C380000000000000000E001F0036B
:1049B0003807180618063003F001F000F8009C31A3
:1049C0000E33061E061C061C063FFC73F021000079
:1049D00000000000000000000000000000000C00CB
:1049E0000C000C000C000C000C000000000000008B
:1049F00000000000000000000000000000000000B7
:104A000000000000000000000000000000020003A1
:104A10008001C000C0006000600030003000300045
:104A20003000300030003000300060006000C00016
:104A3000C0008001000300020000000020006000B0
:104A4000C00080018001000300030006000600068C
:104A500000060006000600060006000300038001B1
:104A60008001C000600020000000000000000E0077
:104A70001B0011001B000E000000000000000000E1
:104A80000000000000000000000000000000000026
:104A90000000000000000000000000000000000016
:104AA0000000000000008001800180018001800181
:104AB000FC3FFC3F800180018001800180010000FB
:104AC00000000000000000000000000000000000E6
:104AD00000000000000000000000000000000000D6
:104AE00000000000000000000000000080018001C4
:104AF0000001000180000000000000000000000034
:104B000000000000000000000000000000000000A5
:104B10000000E007E00700000000000000000000C7
:104B20000000000000000000000000000000000085
:104B30000000000000000000000000000000000075
:104B4000000000000000000000000000C000C000E5
:104B5000000000000000000000000000000C000C3D
:104B60000006000600060003000300038003800126
:104B700080018001C000C000C00060006000000033
:104B8000000000000000000000000000E003F0074B
:104B9000380E180C0C180C180C180C180C180C18D3
:104BA0000C180C180C18180C380EF007E003000055
:104BB0000000000000000000000000000001800173
:104BC000C001F0019801880180018001800180010D
:104BD000800180018001800180018001800100004E
:104BE000000000000000000000000000E003F80FDB
:104BF000180C0C180C1800180018000C0006000304
:104C00008001C000600030001800FC1FFC1F000085
:104C1000000000000000000000000000E001F807B4
:104C2000180E0C0C0C0C000C0006C003C007000C86
:104C3000001800180C180C18180CF807E0030000F6
:104C4000000000000000000000000000000C000E4A
:104C5000000F000F800DC00C600C600C300C180CA5
:104C60000C0CFC3FFC3F000C000C000C000C000086
:104C7000000000000000000000000000F80FF80F26
:104C8000180018000C00EC03FC071C0E001C001898
:104C9000001800180C181C0C180EF807E003000090
:104CA000000000000000000000000000C007F00F3E
:104CB000381C181818000C00CC03EC0F3C0E1C1C00
:104CC0000C180C180C18181C380EF007E003000024
:104CD000000000000000000000000000FC1FFC1F9E
:104CE000000C00060006000380038001C001C00024
:104CF000E000600060007000300030003000000014
:104D0000000000000000000000000000E003F007C9
:104D1000380E180C180C180C3806F007F007180C91
:104D20000C180C180C180C18380CF80FE0030000C5
:104D3000000000000000000000000000E003F00799
:104D4000380E1C0C0C180C180C181C1C381EF81BE8
:104D5000E0190018000C000C1C0EF807F001000010
:104D60000000000000000000000000000000000043
:104D70000000000000008001800100000000000031
:104D80000000000000000000000080018001000021
:104D90000000000000000000000000000000000013
:104DA0000000000000008001800100000000000001
:104DB00000000000000000000000800180010001F0
:104DC0000001800000000000000000000000000062
:104DD000000000000000000000000010001C800F18
:104DE000E003F8001800F800E003800F001C00103A
:104DF00000000000000000000000000000000000B3
:104E000000000000000000000000F81F000000008B
:104E10000000F81F0000000000000000000000007B
:104E20000000000000000000000000000000000082
:104E30000000000000000000000008003800F00141
:104E4000C007001F0018001FC007F001380008004D
:104E5000000000000000000000000000E003F80F68
:104E6000180C0C180C180018000C00060003800128
:104E7000C000C000C00000000000C000C000000072
:104E80000000000000000000000000000000E0073B
:104E900018180420C229224A11440944094409442B
:104EA00009221113E20C024004201818E007000048
:104EB00000000000000000000000000080038003EC
:104EC000C006C006C006600C600C301830183018E0
:104ED000F83FF83F1C700C600C6006C006C0000074
:104EE000000000000000000000000000FC03FC0FB8
:104EF0000C0C0C180C180C180C0CFC07FC0F0C18E4
:104F00000C300C300C300C300C18FC1FFC0700006F
:104F1000000000000000000000000000C007F01FBB
:104F200038381C300C7006600600060006000600CB
:104F30000600060006600C701C30F01FE007000041
:104F4000000000000000000000000000FE03FE0F53
:104F5000060E0618061806300630063006300630F3
:104F60000630063006180618060EFE0FFE03000077
:104F7000000000000000000000000000FC3FFC3FBB
:104F80000C000C000C000C000C00FC1FFC1F0C00A3
:104F90000C000C000C000C000C00FC3FFC3F00005F
:104FA000000000000000000000000000F83FF83F93
:104FB00018001800180018001800F81FF81F180033
:104FC0001800180018001800180018001800000039
:104FD000000000000000000000000000E00FF83FAB
:104FE0003C780E6006E007C00300030003FE03FEEA
:104FF00003C007C006C00EC03CF0F83FE00F000041
:105000000000000000000000000000000C300C3028
:105010000C300C300C300C300C30FC3FFC3F0C30B2
:105020000C300C300C300C300C300C300C300000DC
:10503000000000000000000000000000800180016E
:105040008001800180018001800180018001800158
:1050500080018001800180018001800180010000C9
:105060000000000000000000000000000006000634
:105070000006000600060006000600060006000600
:1050800000060006180618063807F003E0010000C5
:1050900000000000000000000000000006300618BC
:1050A000060C060606038601C60066007600DE00D2
:1050B0008E0106030606060C061806300660000080
:1050C00000000000000000000000000018001800B0
:1050D0001800180018001800180018001800180010
:1050E00018001800180018001800F81FF81F00001A
:1050F0000000000000000000000000000EE01EF0B4
:105100001EF01EF036D836D836D836D866CC66CCE7
:1051100066CCC6C6C6C6C6C6C6C686C386C300009B
:105120000000000000000000000000000C301C30F7
:105130003C303C306C306C30CC30CC308C310C336B
:105140000C330C360C360C3C0C3C0C380C3000008C
:10515000000000000000000000000000E007F81F51
:105160001C380E70066003C003C003C003C003C038
:1051700003C003C006600E701C38F81FE007000073
:10518000000000000000000000000000FC0FFC1FF9
:105190000C380C300C300C300C300C18FC1FFC0799
:1051A0000C000C000C000C000C000C000C000000AB
:1051B000000000000000000000000000E007F81FF1
:1051C0001C380E70066003E003C003C003C003C0B8
:1051D00003C007E006630E3F1C3CF83FE0F700C049
:1051E000000000000000000000000000FE0FFE1F95
:1051F00006380630063006300638FE1FFE07060366
:105200000606060C06180618063006300660000072
:10521000000000000000000000000000E003F80FA4
:105220001C0C0C180C180C001C00F803E00F001EDE
:105230000038063006300E301C1CF80FE007000066
:10524000000000000000000000000000FE7FFE7F64
:105250008001800180018001800180018001800146
:1052600080018001800180018001800180010000B7
:105270000000000000000000000000000C300C30B6
:105280000C300C300C300C300C300C300C300C303E
:105290000C300C300C300C301818F81FE0070000F0
:1052A0000000000000000000000000000360063065
:1052B000063006300C180C180C18180C180C380E88
:1052C00030063006700760036003C001C0010000B3
:1052D0000000000000000000000000000360C36147
:1052E000C361C361663366336633663366336633E0
:1052F0006C1B6C1B6C1B2C1A3C1E380E380E0000ED
:105300000000000000000000000000000FE00C7032
:1053100018303018700C600EC00780038003C00383
:10532000E006700C301C18180C300E6007E000000E
:1053300000000000000000000000000003C0066044
:105340000C301C383818300C6006E007C0038001B0
:1053500080018001800180018001800180010000C6
:10536000000000000000000000000000FC7FFC7F47
:10537000006000300018000C000600038001C0002F
:105380006000300018000C000600FE7FFE7F000069
:10539000000000000000000000000000E003E00347
:1053A00060006000600060006000600060006000FD
:1053B00060006000600060006000600060006000ED
:1053C00060006000E003E0030000000030003000F7
:1053D000600060006000C000C000C000C00180012B
:1053E00080018001000300030003000600060000A6
:1053F000000000000000000000000000E003E003E7
:105400000003000300030003000300030003000384
:105410000003000300030003000300030003000374
:1054200000030003E003E003000000000000C001EF
:10543000C00160036003600330063006180C180CCE
:10544000000000000000000000000000000000005C
:10545000000000000000000000000000000000004C
:10546000000000000000000000000000000000003C
:10547000000000000000000000000000FFFFFFFF30
:105480000000000000000000000000000C000C0004
:105490000C000C000C000C000000000000000000DC
:1054A00000000000000000000000000000000000FC
:1054B00000000000000000000000000000000000EC
:1054C000000000000000F003F8071C0C0C0C000F9B
:1054D000F00FF80C0C0C0C0C1C0FF80FF01800005F
:1054E000000000000000000000000000180018008C
:1054F000180018001800D803F80F380C18181818DE
:105500001818181818181818380CF80FD8030000B5
:10551000000000000000000000000000000000008B
:10552000000000000000C003F007300E180C180047
:10553000180018001800180C300EF007C003000007
:10554000000000000000000000000000001800182B
:10555000001800180018C01BF01F301C181818186D
:105560001818181818181818301CF01FC01B000045
:10557000000000000000000000000000000000002B
:10558000000000000000C003F00F300C1818F81FD6
:10559000F81F180018003818301CF00FC007000062
:1055A000000000000000000000000000800FC00F9D
:1055B000C000C000C000F007F007C000C000C0007D
:1055C000C000C000C000C000C000C000C00000009B
:1055D00000000000000000000000000000000000CB
:1055E000000000000000E00DF80F180E0C0C0C0C71
:1055F0000C0C0C0C0C0C0C0C180EF80FE00D000C25
:105600000C0C1C06F807F001000000001800180040
:10561000180018001800D807F80F381C18181818A8
:10562000181818181818181818181818181800002A
:10563000000000000000000000000000C000C000EA
:10564000000000000000C000C000C000C000C0009A
:10565000C000C000C000C000C000C000C00000000A
:10566000000000000000000000000000C000C000BA
:10567000000000000000C000C000C000C000C0006A
:10568000C000C000C000C000C000C000C000C0001A
:10569000C000C000F8007800000000000C000C0002
:1056A0000C000C000C000C0C0C060C038C01CC0044
:1056B0006C00FC009C018C030C030C060C0C00001D
:1056C000000000000000000000000000C000C0005A
:1056D000C000C000C000C000C000C000C000C000CA
:1056E000C000C000C000C000C000C000C00000007A
:1056F00000000000000000000000000000000000AA
:105700000000000000007C3CFF7EC7E383C183C132
:1057100083C183C183C183C183C183C183C10000AD
:105720000000000000000000000000000000000079
:105730000000000000009807F80F381C181818180F
:105740001818181818181818181818181818000009
:105750000000000000000000000000000000000049
:10576000000000000000C003F00F300C18181818DB
:105770001818181818181818300CF00FC00300006B
:105780000000000000000000000000000000000019
:10579000000000000000D803F80F380C1818181883
:1057A0001818181818181818380CF80FD8031800FB
:1057B0001800180018001800000000000000000089
:1057C000000000000000C01BF01F301C1818181843
:1057D0001818181818181818301CF01FC01B0018BB
:1057E0000018001800180018000000000000000059
:1057F000000000000000B007F0037000300030002F
:105800003000300030003000300030003000000048
:105810000000000000000000000000000000000088
:10582000000000000000E003F003380E180C380000
:10583000F003C007000C180C380EF007E00300005E
:1058400000000000000000000000000000008000D8
:10585000C000C000C000F007F007C000C000C000DA
:10586000C000C000C000C000C000C007800700002A
:105870000000000000000000000000000000000028
:105880000000000000001818181818181818181828
:105890001818181818181818381CF01FE0190000EC
:1058A00000000000000000000000000000000000F8
:1058B0000000000000000C18180C180C180C300622
:1058C00030063006600360036003C001C0010000C1
:1058D00000000000000000000000000000000000C8
:1058E000000000000000C141C141C3616363636304
:1058F00063633636363636361C1C1C1C1C1C0000F6
:105900000000000000000000000000000000000097
:105910000000000000001C38381C300C60066003DA
:105920006003600360036006300C381C1C38000004
:105930000000000000000000000000000000000067
:105940000000000000001830301830187018600C8B
:10595000600CE00CC006C006800380038003800159
:105960008001C001F0007000000000000000000095
:10597000000000000000FC1FFC1F000C00060003DC
:105980008001C000600030001800FC1FFC1F0000F8
:105990000000000000000000000000000003800183
:1059A000C000C000C000C000C000C00060006000B7
:1059B000300060004000C000C000C000C000C00057
:1059C000C000800100030000000000008001800191
:1059D00080018001800180018001800180018001BF
:1059E00080018001800180018001800180018001AF
:1059F0008001800180018001000000006000C00083
:105A0000C00180018001800180018001000300034A
:105A100000060003000180018001800180018001F7
:105A20008001C000600000000000000000000000D5
:105A300000000000000000000000F010F81F080F38
:105A40000000000000000000000000000000000056
:105A50000000000000000000000000000000000046
:105A6000000001020304060708090000000001020B
:105A70000304000002400000000000A0000000003D
:105A800005400000000000C8000000000C400000BD
:105A90000000409C00000000194000000020BCBE37
:105AA0000000000034400000BFC91B8E000000044D
:105AB000B5400000504BCFD06607E2CF0100000098
:105AC0006C4100003E8251AADFEEA73401000000C5
:105AD000D9420000DCB5A0E23A301F97FFFFFFFF7C
