:020000040800F2
:10000000A8070020E5010008A92600081924000817
:10001000A5260008C10A0008C93300080000000036
:10002000000000000000000000000000B5280008EB
:10003000C50A000800000000AD260008B928000825
:10004000FF010008FF010008FF010008FF01000890
:10005000FF010008FF010008FF010008FF01000880
:10006000FF010008FF010008FF010008FF01000870
:10007000FF010008FF010008FF010008FF01000860
:10008000FF010008FF010008FF010008FF01000850
:10009000FF010008FF010008FF010008FF01000840
:1000A000FF010008FF010008FF010008FF01000830
:1000B000FF010008FF010008FF010008FF01000820
:1000C000FF010008FF010008FF010008FF01000810
:1000D000FF010008FF010008FF010008FF01000800
:1000E000FF010008FF010008FF010008FF010008F0
:1000F000FF010008FF010008FF010008FF010008E0
:10010000FF010008FF010008FF010008FF010008CF
:10011000FF010008FF010008C12800083D29000870
:10012000FF010008FF010008FF010008FF010008AF
:1001300000F002F800F047F80AA090E8000C8244B2
:100140008344AAF10107DA4501D100F03CF8AFF28F
:10015000090EBAE80F0013F0010F18BFFB1A43F0A5
:10016000010318471064000030640000103A24BFF7
:1001700078C878C1FAD8520724BF30C830C144BF0C
:1001800004680C607047000000230024002500264E
:10019000103A28BF78C1FBD8520728BF30C148BFEA
:1001A0000B607047662905F08480002070471FB5FA
:1001B00000F010FB04000020002104F0B9F8E0601A
:1001C0001FBD10B510BD00F005FC1146FFF7EFFF95
:1001D00003F0FCF800F023FC03B4FFF7F2FF03BCCC
:1001E00000F066FC0948804709480047FEE7FEE743
:1001F000FEE7FEE7FEE7FEE7FEE7FEE7FEE7FEE7D7
:1002000004480549054A064B70470000BD28000810
:1002100031010008A8010020A8070020A803002041
:10022000A80300200FB41CB50C0007AA009007D04B
:100230004142A14202D32044401E01E04FF0FF3072
:10024000074B7B4469460190069800F0A8FA00200D
:10025000002C01D0009908701CBC5DF814FB000054
:100260007F0500002DE9F0474FF0000A894604465B
:10027000C0F820A02046E1688847002876D02528CD
:1002800006D0D4E901219047206A401C2062F1E7A2
:10029000E168204600258847C4F81CA006460027D0
:1002A000C4F818A02A2E09D0304604F039F838B323
:1002B00004EB8708303EC8F8186019E059F8041BB1
:1002C000204604EB87029161E1688847012F0646CA
:1002D00018D1E069002820DA25F020051DE0D8F8C3
:1002E000180000EB800006EB40003038C8F818001A
:1002F0002046E1688847064604F012F80028EED14F
:10030000012F0AD02E2E08D12046E16888477F1C95
:100310000646022F45F02005C4DBA069002803DA59
:10032000404245F00105A061E80701D025F0100525
:10033000B6B1A6F14100192802D8203645F400656F
:100340004A463146204625604D46FFF72BFF58B1FF
:10035000012806D0ED1D25F0070000F1080989E706
:1003600004E005F1040985E730468AE7206ABDE824
:10037000F0877047704770472DE9FF4F0C461E46C7
:100380004FF0FF378BB0D2E90001DDF860800A90B2
:100390008A46C1F30A5505B93D46002108464FF08B
:1003A0000000BAF1000F00F4400005DA00EB800015
:1003B0004FF4400101EA50004FEA9059B9F1010FA2
:1003C00000DDB9460A9850EA4A000ED044F61050B3
:1003D000A5F2FF3545432F14B8F1000F1ED075422A
:1003E000291E1EDDC9F100021CE0B8F1010F4FF01B
:1003F000000001D0302103E0F24305E02154401C0D
:10040000B042FBDB30460022002121540B99C1F899
:100410000880C1E900200FB0BDE8F08FBD1B6D1C46
:10042000DEE74A4600DA694206A800F05DFA06AB4C
:1004300093E8070003AB83E8070050460A9903F0EE
:1004400093FB8DE80700A0F500501F38009003983B
:10045000002D0ADD42F21F014A460844002303A989
:100460000390684603F0FCFD09E0A0F500504A4601
:100470001F38002303A90390684603F006FE8DE8A9
:1004800007000004000C03D04FF0FF30410800E0EB
:100490001046B8F1000F03D00022009215461EE06E
:1004A000751E05D400F09AF9303262556D1EF9D5EB
:1004B000B3460122084302D000227F1C04E02078CA
:1004C000302801D100227F1E002A099784D01DE028
:1004D000112D07DA00F082F9303262556D1C50EAB6
:1004E0000102F5D1084302D00098C8B10EE0002106
:1004F000681E05E0235C625C63542254401E491C64
:100500008142F7DBAB46A81B401E0990002004F88F
:100510000B000B98099AC0F80880C0E9002B7AE715
:1005200011264FF0000857E72DE9F04F88460446A2
:10053000D21D22F0070191B0D1E90001CDE90A01F5
:1005400003F0DAFE02460B98C00F01D02D2007E021
:100550002068810701D52B2002E0202101EAC0009C
:10056000032A099001D0072A05DB034641462046AD
:1005700000F07AF90BE12078800601D5E06900E00F
:100580000620B8F1650F814606D0B8F1660F18D085
:10059000B8F1670F70D131E00020B9F1110F009070
:1005A00001DB112301E009F101030AAA01A90CA84A
:1005B000FFF7E2FEDDE90C70002609F10105834634
:1005C00047E001204B4600904FF000470AAA01A9DE
:1005D0000CA8FFF7D1FEDDE90DB00C995D460026B1
:1005E00010B909F101000D18B9EB050003D4C0F1F1
:1005F000FF3609F10105A5EB09002BE0B9F1010F68
:1006000001DA4FF001090020B9F1110F00904846BE
:1006100001DD112300E003460AAA01A90CA8FFF797
:10062000ABFEDDE90C704D460026834620780007BE
:100630000AD4AB4500DA5D4601A8012D04DD41195D
:1006400011F8011C302907D04F4502DA17F1040FC9
:1006500004DA012082460FE06D1EEEE7002F02DC77
:10066000ED1B3E4403E0781CA84200DD7D1CB81B56
:1006700000F1010A4FF000472078000703D4AA4593
:1006800001DB4FF0FF3A0021B7F1004F0DF14308B5
:100690008DF8431024D002202B23002F01DA7F4253
:1006A0002D230A21021EA0F1010000DC5FB197FB9F
:1006B000F1FC97FBF1F201FB1C7C17460CF1300CAE
:1006C00008F801CDEEE7A8F10100037021880905C3
:1006D00001D5452100E06521A0F1010800F8011CC9
:1006E00009980FA9A1EB0807FF1D00B101204119CE
:1006F00001EBEA70A1693844081A401EA061207815
:10070000C00602D42046AFF30080099828B1D4E98E
:1007100001219047206A401C20622078C00622D523
:100720002046AFF300801EE0002E04DBB34502DD5F
:1007300001A8805D00E03020D4E901219047206AC3
:10074000401C2062761CAAF101005FEA000A0AD16F
:1007500000F040F8C0680168405CD4E9012190478E
:10076000206A401C2062281EA5F10105DCDC07E0A0
:10077000D4E9012118F8010B9047206A401C20623F
:10078000381EA7F10107F3DC2046AFF300800320F9
:1007900011B041E601694A1C02610878704700B552
:1007A0008FB0CDE901310021059105497944CDE9AA
:1007B000031011466846FFF755FD0FB000BD00005D
:1007C000E5FFFFFFD1E900239A4202D2531C0B60E0
:1007D00010707047004870473800002030B5B0F105
:1007E0000A0271F100034FEA900E4EEA817EB0EBEF
:1007F0000E0061EB91014FEA101E4EEA017E10EBF4
:100800000E0041EB11114FEA102E4EEA016E10EB73
:100810000E0041EB11214FEA104E4EEA014E10EB53
:100820000E0041EB1141401841F100014FEAD000A8
:1008300040EA41704FEAD1014FEA810444EA9074E2
:1008400010EB800544EB01046D1944EB0404521BCA
:10085000A3414FF0000348BF0A3200D530BD401C11
:1008600041F1000130BD00002DE9F0411F46044672
:1008700003260168072A01F4006004DB08B116A50D
:1008800005E016A503E008B115A500E015A521F0C7
:1008900010002060A069C01EA0610FB1401EA061C1
:1008A0002046AFF300804FB1D4E90121384690478C
:1008B000206A401C2062C01C206206E0206AFAE721
:1008C000D4E9012115F8010B9047761EF8D2204695
:1008D000AFF30080BDE8F0814E414E006E616E00C6
:1008E000494E4600696E66002DE9F047814616467E
:1008F0008AB0354878440DC88DE80D0032487844F8
:10090000801C03AC0DC884E80D0041F69B30084400
:10091000372190FBF1F290FBF1F5A5F1800501FB89
:1009200012041B3C02D56442012000E00020DFF8E5
:1009300098A080460027FA44AAF1BE0A0EE0E0071C
:100940000AD03246684607EB470101230AEB8101D2
:1009500003F09BFB8DE8070064107F1C002CEED198
:10096000194F7F44AE3F19E0E80715D007EB04109C
:100970000DF1180A90E80E008AE80E00C068F042F7
:1009800001D1981908903246012306A903A803F063
:100990007CFB03AB83E807006D10641C002DE3D1E2
:1009A0004FF0010332466946B8F1000F03A802D0A8
:1009B00003F056FB01E003F068FBC9E90001C9F848
:1009C00008200AB0BDE8F0873C4A000000487047A4
:1009D000180000207546FFF7F9FFAE46050069468E
:1009E000534620F00700854618B020B5FFF708FCF5
:1009F000BDE820404FF000064FF000074FF0000820
:100A00004FF0000BAC46ACE8C009ACE8C009ACE85C
:100A1000C009ACE8C00921F007018D46704710B548
:100A20000446AFF300802046BDE81040FFF7D4BB7A
:100A30004FF0013C50F8042B51F8043B9A4221D16D
:100A4000A2EB0C03934313EACC1317D150F8042BF9
:100A500051F8043B9A4215D1A2EB0C03934313EADD
:100A6000CC130BD150F8042B51F8043B9A4209D116
:100A7000A2EB0C03934313EACC13DBD04FF000003E
:100A8000704700BFD01A01BAB1FA81F101F0180124
:100A900022FA01F0CB40DBB2C0B2C01AC1F1200192
:100AA0002CFA01F3D11A914311EAC311E6D1704730
:100AB00001491820ABBEFEE7260002007047000087
:100AC000FEE7000070470000B0B5B3F5804F034665
:100AD0001AD153F822C00020CCF6F0700CEA000EB8
:100AE00091E83100D1F818C040EA0E0040EA041045
:100AF000C96840EA052040EA0C0040EA01410020B4
:100B000043F82210B0BD00BF6FF07041002043F8E1
:100B10002210B0BD2DE9F04F83B00B68024650F8AB
:100B2000230001F1240B20F0010042F82300D1E959
:100B300002C0D1E900E301908869D1E9049A0290EA
:100B4000D1E90C80D1E9077600909BE8300852F893
:100B50002E008021CFF6F0710840BCF1080F08BFCD
:100B600043F040030199194341EA090141EA0A01AE
:100B7000394331432143294341EA0B01029B41EAB6
:100B800008011943009B1943084340EA0C01002067
:100B900042F82E1003B0BDE8F08F0000F0B500EB76
:100BA00082025068D1E902E400F0404CD1E9003003
:100BB000D1E9045643EA0C03002743EA0010CFF6BC
:100BC000F07740EA0E20896907EB055540EA0440BA
:100BD0002843FE36084340EA066100205160F0BD1C
:100BE00010B581B00022009290F82420012A03D190
:100BF0000221084601B010BD4B680122062B80F887
:100C0000242017D8D0F800C003EB83035A1F1F23FA
:100C1000DCF834E003FA02F40B682EEA040403FA69
:100C200002F22243CCF83420092B03EB430219D9FA
:100C300036E000BFD0F800C00C2B03EB83021DD8B8
:100C4000233A1F23DCF830E003FA02F40B682EEAA3
:100C5000040403FA02F22243CCF83020092B03EB00
:100C600043021DD8DCF81030072489689440A34360
:100C700091401943CCF81010002130E0413A1F2375
:100C8000DCF82CE003FA02F40B682EEA040403FA01
:100C900002F22243CCF82C20092B03EB4302E1D9CA
:100CA000DCF80CE01E3A0724896894402EEA04041C
:100CB000914023F001022143102ACCF80C100DD1F1
:100CC00042F20841C4F20101A1F1080294450DD09D
:100CD000816A41F020018162012100E000210022AF
:100CE00080F82420084601B010BD00BF0A68120237
:100CF00030D40A68102B42F400020A602CD140F272
:100D00000C01C2F2000109684DF68362C4F21B3285
:100D1000A1FB0212910C01EB8101490000910099A5
:100D2000E1B10099013900910099C9B100990139E7
:100D300000910099B1B1009901390091009999B1E0
:100D4000009901390091009900294FF00001E8D184
:100D5000C5E700BF0021C2E70021C0E70021BEE7D0
:100D60000021BCE70021BAE70021B8E70068C06CA9
:100D700070470000B0B5002800F0AA800446806AE1
:100D800020B120688168C9070BD03BE00020E062F9
:100D900084F82400204600F09DF820688168C90787
:100DA00030D1A16AC90647D4A16A41F20212914327
:100DB0000231A162E36980F0804181F49E3183F4C5
:100DC0004022114308BF4FF40023D4E9011243EA43
:100DD000010C531EB3FA83F35D091346B2F5807F0D
:100DE00018BF2B02217D257B01294CEA450132D118
:100DF00045B3A56A45F02005A562E56A45F0010501
:100E0000E56228E0816821F00101816000F048FB83
:100E1000054600BF20688168C907C2D000F040FBCA
:100E2000401B0328F6D3A06A40F01000A062E06ADD
:100E300040F00100E062A06AA06A40F01000A062E9
:100E40000120B0BDD4F818C04EF60005CFF6FF75EE
:100E500005EB4C352B434568B2F5807F25F4694599
:100E600043EA0503436083684FF2FD75CFF6E175F1
:100E700003EA050343EA0103836001D0012A07D195
:100E800022690023CFF6F07303EB025201E000BFAA
:100E90000022C36A23F470031A43C262806840F6DA
:100EA000FE62CFF61F721040884207D10020E06238
:100EB000A16A012262F30101A162B0BDA06A40F003
:100EC000100020F00200A062E06A40F00100E06241
:100ED0000120B0BD80B586B0014641F20000C4F2E9
:100EE0000100096800F5A05291424FF00001CDE9E0
:100EF000041101D006B080BD41F21801C4F2020114
:100F00000A6842F400720A600A6802F400720192F0
:100F1000019A0A6842F010020A60096801F01001A3
:100F200001910199082102910321039102A900F086
:100F3000ADF906B080BD00002DE9F04182B0002778
:100F40000D460446019700F0ABFA21688A68D20585
:100F500044D406464868C00503D4C86A10F4700F2C
:100F600046D040F20C00C2F20000076842F29248FC
:100F70000220C1F2492800F051FB216844F62413F5
:100F80000A69B7FBF0F0C2F292431A4206D1CA686E
:100F900044F62413C0F292031A4249D00A6912EAB5
:100FA000080F07D1CA6842F29243C0F249031A42BD
:100FB00000F084800A6949F24923C0F224031A42EE
:100FC0004FF0FC0242D1CF681F4208BF5422019B60
:100FD00002FB00F7BB423ED379E000BFA06A40F0BD
:100FE0002000A06284F82470012002B0BDE8F081E6
:100FF000086880076BD4002D55D0681C12D1086892
:10100000800764D4086880075CBF08685FEA807066
:101010005DD408688007F2D559E000BF21680868F0
:10102000800754D400F03CFA801BA842F6D93AE07D
:101030000A6912EA080F4FF0290207D1CB6842F281
:101040009247C0F249073B4208BF1422019B02FBB2
:1010500000F7BB423BD235B3681C1FD10198013069
:1010600001900198B84232D2019801300190019864
:10107000B8422CD20198013001900198B84226D292
:101080000198013001900198B842E7D31FE000BFFA
:101090000198013001900198B84217D200F000FA8F
:1010A000801BA842F4D9A06A40F00400A06200208E
:1010B00084F82400032002B0BDE8F0815422019B93
:1010C00002FB00F7BB42C6D301E000BF21686FF00E
:1010D00012000860A06A40F40070A062886800F402
:1010E0006020B0F5602F01D1207B18B1002002B044
:1010F000BDE8F081A06A20F48070A062A06AC004FC
:10110000F4D4A06A40F00100A062002002B0BDE863
:10111000F0810000B0B582B0044690F824000128A8
:1011200002D1022002B0B0BD012084F824000020CA
:10113000019020688168C90742D1816841F00101AE
:10114000816040F20C00C2F2000000684DF683613D
:10115000C4F21B31A0FB0101880C01900198A0B1E1
:10116000019801380190019878B1019801380190F7
:10117000019850B1019801380190019828B1019867
:101180000138019001980028EAD100F089F905465C
:1011900020688168C90713D100F082F9401B02283A
:1011A000F6D9A06A40F01000A062E06A40F00100A9
:1011B000E062002084F82400012002B0B0BD00BF2E
:1011C000A26A42F2044140F20133C4F201019A439F
:1011D00002F5807301F57F729042A3622ED0A36A5C
:1011E00023F48013A36243685B0504D5A36A012539
:1011F00065F30D33A362A56A0023ED044FF00005EB
:1012000044BFE56A25F00605E56284F824306FF0F6
:1012100002030360836803F46023B3F5602F05D1F4
:10122000904217D1096811F4702F13D0816841F4EE
:1012300080118160002002B0B0BD00BF0B6813F4C4
:10124000702FCCD0A36A43F48013A3620B685B05B4
:10125000CCD4D0E7816841F4A0018160002002B0C5
:10126000B0BD0000B0B5044600F01AF9054640F2E2
:101270000000C2F200000078611C18BF044400BFE7
:1012800000F00EF9401BA042FAD3B0BD2DE9F04F9B
:1012900082B0D1F800C0BCF1000F00F0F180A0F1E5
:1012A000804241F60045A2F58432C4F2010540F2C5
:1012B000004E4FEAB2240627A842C4F2010E08BF2E
:1012C0000527052C4FF000044FF001084FF00F03E5
:1012D0004FF0000A4FF0000B38BF4FEAB2270097DB
:1012E0000AE000BFD1F800C00AF1010A3CFA0AF294
:1012F00004F1040400F0C48008FA0AF91CEA090F9A
:10130000F0D04E684FF6FF72C1F21002964211DC27
:10131000122E55D8DFE806F0340A44485454545489
:101320005454545454545454544C5000D1F80CB0A8
:1013300046E000BF4FF6FF72C1F2210296420FDC79
:101340000022C1F2110296421AD00022C1F212020A
:10135000964215D00022C1F22102964210D02FE011
:101360000022C1F2220296420AD00022C1F23102CA
:10137000964205D00022C1F23202964220D100BF2F
:101380008A684AB1012A14BFC0F81490C0F81090BE
:101390004FF0080B14E000BF4FF0040B10E000BF4B
:1013A000CA6802F1080B0BE04FF0000B08E000BF29
:1013B000CA6802F1040B03E0CA6802F10C0B00BF1B
:1013C00022460646BAF1080F24BF203A0436376891
:1013D00003FA02F5AF430BFA02F23A433260CA79DC
:1013E000D2067FF57FAF41F21807C4F202073A68D0
:1013F0004FF6084342F001023A603A68CFF6FF73B5
:1014000002F001020192019A2AF0030272440F25B0
:10141000D75804F00C06B540AF43009D05FA06F618
:101420003743D7504E6840F20C45F203DEF80020F7
:1014300054BF22EA090242EA0902CEF80020DEF88F
:101440000420B70354BF22EA090242EA0902CEF897
:101450000420DEF80820C4F20105F70254BF22EA96
:10146000090242EA0902CEF808200F232A68B702CF
:1014700054BF22EA090242EA09022A6032E700BFA9
:1014800002B0BDE8F08F00008068084018BF01205E
:1014900070470000002A08BF09040161704700007E
:1014A00040F2A010C2F200000068704740F2000055
:1014B00040F2A011C2F20000C2F2000100780A68F6
:1014C000104408607047000080B542F20000C4F28A
:1014D0000200016841F010010160032000F08EF865
:1014E000002000F005F800F027F8002080BD000083
:1014F00070B540F20006C2F2000640F20C013278EC
:10150000C2F200014FF47A730968B3FBF2F20446A9
:10151000B1FBF2F1084600F007FD0F2C4FF001057A
:1015200008D838B94FF0FF3021460022002500F0DE
:1015300039F87460284670BD82B041F21800C4F2D8
:1015400002000168042241F001010160016801F01C
:10155000010101910199416841F080514160406869
:1015600000F08050009000980420C4F2010001684F
:1015700062F31A61016002B070470000002848BFA2
:101580007047C1B200F01F00012202FA00F04EF2D3
:101590000012CEF2000242EAD10121F003010860FC
:1015A0007047000010B54EF60C5CCEF2000CDCF873
:1015B0000030C3F3022E8EF00704042C28BF04244D
:1015C000BEF103034FF0FF3E0EFA04F438BF0023D0
:1015D000A14399400EFA03F39A43114300F00F021E
:1015E00000F160430901043A03F5644362440028B2
:1015F00048BF02F10C03197010BD00004EF60C51EB
:10160000CEF200010A684FF6FF031A4060F30A2287
:1016100042F0806040F0FD700860704780B5411E68
:101620000F294FF0000039D8DFE801F00C2A380804
:1016300038383808383838383838383ABDE88040D3
:1016400000F0EEB941F20400C4F20200C16940F2B8
:1016500002320A40B2F5817F04BF4FF4004080BDE2
:1016600001F44071B1F5407F4CD0B1F5007F51D10C
:10167000006A49F64041800701EAE07080BD00BF82
:1016800000F0BAF941F20401C4F202010968022231
:10169000C1F3813102EB4101B0FBF1F080BD00BF2D
:1016A00041F20401C4F202010A6851F8040CC001BD
:1016B0005CBF002080BDC2F3834017A3185CD20337
:1016C00006D440F60012C0F23D0250430CE000BFC9
:1016D0000A6815A3C2F340429A5C41F20023C0F2AB
:1016E0007A03B3FBF2F250430968490248BF80BD58
:1016F0004AF6AB214000CAF6AA21A0FB0101480826
:1017000080BD00BF50F8040C4FF22441800301EA71
:10171000E07080BD002080BD0203040506070809B3
:101720000A0B0C0D0E0F1010010200002DE9F04104
:1017300082B00446007841F21C06C007C4F20206DB
:101740004AD0306810F0805808D1306840F080509E
:101750003060306800F080500190019847F2000737
:10176000C4F200073868C00512D4386840F48070AD
:101770003860FFF795FE05463868C00508D4FFF7C6
:101780008FFE401B6428F7D9032002B0BDE8F0812A
:10179000706810F4407012D0616801F440718842A2
:1017A0000DD0706840F24042C4F24222012320F47E
:1017B000407113600023C007136071602AD1706804
:1017C000616820F440700843B8F1000F706003D1E5
:1017D000306820F0805030602068810707D556F8C7
:1017E000181CA26821F44041114346F8181CC00699
:1017F00004D4002002B0BDE8F08100BF56F8180CF8
:10180000616920F48000084346F8180C002002B0FB
:10181000BDE8F081FFF744FE054641F2883700BF7E
:1018200070688007CBD4FFF73BFE401BB8424FF0F7
:101830000300F5D9EBE700002DE9F04381B0002863
:1018400000F0858042F20008C4F202080446D8F88D
:1018500000000D4600F0070088420CD2D8F80000C6
:1018600020F007002843C8F80000D8F8000000F076
:101870000700A8426BD1206841F204098107C4F235
:10188000020917D5410705D5D9F8001041F4E061E8
:10189000C9F80010010705D5D9F8001041F46051CE
:1018A000C9F80010D9F80010A26821F0F001114326
:1018B000C9F80010C00741D1D8F8000000F00700B7
:1018C000A8420CD9D8F8000020F007002843C8F837
:1018D0000000D8F8000000F00700A84237D12068C7
:1018E000410707D5D9F80010E26821F4E0611143FF
:1018F000C9F80010000708D5D9F80000216920F4C4
:10190000605040EAC100C9F80000D9F8002002F098
:101910000C00082841F20020C0F27A0050D146F2B3
:101920003653C2F38341C0F60003595CD2033BD463
:1019300040F60010C0F23D00484341E060680228D4
:101940000AD001282AD159F8041C890308D401209F
:1019500001B0BDE8F08300BF59F8041C8901F6D539
:10196000D9F8001021F003010843C9F80000FFF77F
:1019700097FD064641F28837D9F80000616800F00B
:101980000C00B0EB810F97D0FFF78AFD801BB842A7
:10199000F2D9032001B0BDE8F08300BF59F8041C60
:1019A0008907D4D5DCE700BFD9F8002045F24C33D5
:1019B000C2F34042C0F600039A5C4843B0FBF2F029
:1019C000D9F8001045F24E32C1F30311C0F60002FF
:1019D000515C40F20C0220FA01F140F20400C2F224
:1019E00000000068C2F200021160FFF781FD0020D4
:1019F00001B0BDE8F083000040F20C0041F20401A8
:101A0000C2F20000C4F202010068096845F25E32C9
:101A1000C1F3C221C0F60002515CC840704700000B
:101A200041F2040CC4F2020CDCF8003003F00C00AC
:101A3000082841F20020C0F27A0018BF704746F231
:101A40003651C3F38342C0F600018A5CD90305D442
:101A500040F60010C0F23D0050437047DCF8001023
:101A600045F24C33C1F34041C0F60003595C50438A
:101A7000B0FBF1F0704700002DE9F04182B0002882
:101A800068D00446007841F20006C007C4F202069E
:101A900025D0706800F00C0004281BD0706800F09E
:101AA0000C00082802D17068C00313D460680028B5
:101AB00000F06881B0F5A02F00F07C81B0F5803F88
:101AC00000F07C81306820F480303060306820F491
:101AD000802076E13068800301D56068D0B320783B
:101AE000800718D5706810F00C0F07D0706800F0F0
:101AF0000C0008286ED17068C0036BD43068800772
:101B000002D52069012825D13068616920F0F800EC
:101B100040EAC1003060207800071FD420784007D9
:101B200032D4E56995B1706800F00C00082840F0E7
:101B30008F80012D0ED07068216A00F480328A42B5
:101B400008D1616A00F47010884203D1002002B00D
:101B5000BDE8F081012002B0BDE8F081A069002855
:101B600062D00020C4F242200121C0F88014FFF7A7
:101B700097FC0546706A800700F18C80FFF790FCA7
:101B8000401B0228F6D92AE1F06910F0805808D1EC
:101B9000F06940F08050F061F06900F080500090F2
:101BA000009847F20007C4F200073868C00529D43E
:101BB000386840F480703860FFF772FC054600BF5B
:101BC0003868C0051ED4FFF76BFC401B6428F7D9AA
:101BD00005E100BF2069002840F20000C4F2422065
:101BE00000F0828001210160FFF75AFC054600BF2A
:101BF000306880073FF588AFFFF752FC401B022892
:101C0000F6D9ECE0E068002800F08080052800F0BC
:101C10009780012800F09880306A20F0010030623F
:101C2000306A20F0040092E00020C4F2422000213B
:101C3000C0F88014FFF734FC054600BF706A8007C7
:101C40007FF56CAFFFF72CFC401B0228F6D9C6E0ED
:101C50000027C4F2422700203866FFF721FC022D3E
:101C600005460BD13068800140F1BE80FFF718FCBB
:101C7000401B02284FF00300F4D968E73068800168
:101C80007FF564AFFFF70CFC401B02284FF0030008
:101C9000F4D95CE740F20C00C2F20000006844F6A0
:101CA000D351C1F26201A0FB0101480A019000BFBB
:101CB00000BF0198411E002801913FF42FAF00BFE3
:101CC0000198411E002801913FF428AF00BF019800
:101CD000411E002801913FF421AF00BF0198411E31
:101CE00000280191E4D119E700210160FFF7D8FB3A
:101CF000054600BF306880077FF50DAFFFF7D0FBCA
:101D0000401B02284FF00300F4D920E7306A20F08E
:101D100001003062306A20F004003062FFF7C0FB3F
:101D2000054641F2883700BF306A800720D5FFF7AB
:101D3000B7FB401BB8424FF00300F5D907E700BFDF
:101D4000306A40F004003062306A40F001003062D6
:101D5000FFF7A6FB054641F2883700BF306A8007CF
:101D600006D4FFF79DFB401BB842F7D937E000BF10
:101D7000B8F1000F7FF4D5AEF06920F08050F0612B
:101D8000CFE600BF306820F480303060306820F447
:101D900080203060FFF784FB054600BF3068800379
:101DA0007FF59DAEFFF77CFB401B64284FF00300DE
:101DB000F4D9CCE6306840F480203060306840F4DC
:101DC00080303060FFF76CFB054600BF3068800351
:101DD0003FF585AEFFF764FB401B6428F6D903206E
:101DE00002B0BDE8F08100BF206AB0F5803F05D1A8
:101DF0007168A26821F40031114371607168626AF0
:101E000021F4741111430843706001203866FFF714
:101E100047FB0446306880013FF598AEFFF740FB72
:101E2000001B02284FF00300F4D990E6F0B581B012
:101E300020B104468069B0F5807F03D1012001B054
:101E4000F0BD00BF94F8410015460E4604F10807A6
:101E500028B9002084F84000204600F01DF82068D2
:101E60003946FEF757FE2068A2683146FEF796FE17
:101E7000D4E90102236B2946FEF726FE2068A168FB
:101E800050F8212042F0010240F82120012084F87E
:101E90004100002001B0F0BDF0B585B040F2B000C7
:101EA000C2F20000017800220392D1BB012101702F
:101EB00041F21400C4F20200026841F2004442F40C
:101EC000807202600068C4F2010400F48070009027
:101ED000009801AD01910226032704F50060294610
:101EE00002960497FFF7D2F94FF68070CDE901060C
:101EF00004F5806029460497FFF7C8F94CF2337067
:101F0000CDE90106204629460497FFF7BFF94FF4B3
:101F10008050CDE9010604F5406029460497FFF79B
:101F2000B5F905B0F0BD0000411E0020B0EB116F07
:101F30001CBF012070474EF21002CEF20002516029
:101F40004EF62351CEF20001F0230B700721906072
:101F500011607047704700007047000010B590F89E
:101F60003C20012A4FF002023FD080F83D20026859
:101F7000D2F804E0D2F808C00C682EF070032343B6
:101F800040F6FF34C4F20004A242536010DCB2F108
:101F9000804F1FD040F20043C4F200039A4219D090
:101FA00040F60003C4F200039A4213D017E000BFCA
:101FB00040F60043C4F200039A420BD043F20043C0
:101FC000C4F201039A4205D042F60043C4F2010371
:101FD0009A4204D149682CF0800319439160012191
:101FE000002280F83D1080F83C20104610BD000013
:101FF000002804BF0120704710B5044690F83D004A
:1020000028B9002084F83C00204600F085F8022022
:1020100084F83D00206840F6FF330268C4F20003F4
:1020200043F2004C9842C4F2010C21DCB0F1804F25
:102030002CD040F20041C4F20001884226D040F684
:102040000001C4F20001884220D0984224DCB0F1A3
:10205000804F2FD040F20041C4F20001884229D0C5
:1020600040F60001C4F20001884223D026E000BF00
:1020700040F60041C4F20001884207D0604505D017
:1020800042F60041C4F201018842DED1A16822F08B
:1020900070020A439842DADD40F60041C4F20001C2
:1020A000884207D0604505D042F60041C4F20101E4
:1020B000884203D1216922F440720A43A36922F0C5
:1020C0008001D4F804E0E268194360450160C2620F
:1020D000C0F828E005D042F60041C4F20101884270
:1020E00001D16169016301214161002084F846103A
:1020F00084F83E1084F83F1084F8401084F84110B2
:1021000084F8421084F8431084F8441084F8451091
:1021100084F83D1010BD000010B582B0006841F297
:102120000041C4F20001884214D041F20001C4F21F
:102130000001884228D141F21C00C4F2020001686B
:10214000362441F010010160006800F01000019099
:1021500001980DE041F21C00C4F20200016837242E
:1021600041F020010160006800F02000009000981C
:10217000204600210022FFF715FA204602B0BDE8F4
:102180001040FFF7FBB900BF02B010BD90F83D1042
:1021900001291CBF01207047022180F83D10006812
:1021A00040F6FF31C4F2000188420FDCB0F1804FED
:1021B0001ED040F20041C4F20001884218D040F61F
:1021C0000001C4F20001884212D018E040F600413C
:1021D000C4F2000188420BD043F20041C4F2010175
:1021E000884205D042F60041C4F20101884206D17E
:1021F000816801F00701062904BF002070470168CB
:1022000041F00101016000207047000090F83D108E
:1022100001291CBF01207047022180F83D10006891
:1022200040F6FF32C168C4F20002904241F0010161
:10223000C1600FDCB0F1804F1ED040F20041C4F20B
:102240000001884218D040F60001C4F20001884223
:1022500012D018E040F60041C4F2000188420BD0D1
:1022600043F20041C4F20101884205D042F6004128
:10227000C4F20101884206D1816801F007010629F4
:1022800004BF00207047016841F001010160002097
:10229000704700007047000010B5016804460869E7
:1022A000800744BFC8685FEA807039D40869400776
:1022B00044BFC8685FEA40703ED40869000744BF65
:1022C000C8685FEA007045D40869C00644BFC868A2
:1022D0005FEAC0604AD40869C0071CBFC8685FEAEB
:1022E000C07051D10869000644BFC8685FEA006049
:1022F00052D40869400644BFC8685FEA406053D4BE
:102300000869800646BFC8685FEA806010BD6FF04C
:10231000200220460A61BDE81040FFF71DBE00BF45
:102320006FF002000861012020778869800743D0A0
:102330002046FFF7AFFF45E06FF004000861022080
:102340002077886910F4407F40D02046FFF7A2FF35
:1023500042E000BF6FF00800086104202077C869E0
:1023600080073DD02046FFF795FF3FE06FF010005B
:10237000086108202077C86910F4407F3AD02046D1
:10238000FFF788FF3CE000BF6FF0010008612046C6
:1023900000F03EF82168A5E76FF080000861204654
:1023A000FFF7D8FD2168A4E76FF0400008612046E0
:1023B00000F030F82168A3E7204600F025F8204619
:1023C00000F024F82168002020776FE7204600F015
:1023D0001BF8204600F01AF82168002020776CE7EF
:1023E000204600F011F8204600F010F82168002087
:1023F000207769E7204600F007F8204600F006F84D
:1024000021680020207766E77047000070470000D1
:102410007047000070470000FEE7000002214FF007
:10242000D8422023C6F6004113804FF0000C212330
:10243000A1F800C013802223A1F800C013804FF43C
:10244000963200BF403A08800880088008800880E3
:10245000088008800880088008800880088008803C
:10246000088008800880088008800880088008802C
:10247000088008800880088008800880088008801C
:10248000088008800880088008800880088008800C
:1024900008800880088008800880088008800880FC
:1024A00008800880088008800880088008800880EC
:1024B00008800880088008800880088008800880DC
:1024C000088008800880BDD1704700002DE9F041E8
:1024D0000A78F2B145F2663804464D1C002740F2F6
:1024E0003F16C0F6000800BFA2F12000C0B200EB0A
:1024F000400008EB0012B1B2204600F00DF8EA5D92
:10250000002A08BFBDE8F081103E132F07F1010734
:10251000EAD3BDE8F08100002DE9F043022340F248
:10252000080740F2B404C6F600434FF0D84C4FF011
:10253000200E4FF0210800254FF02209C2F20007BB
:10254000C2F20004ACF800E01880ACF800801980FA
:10255000ACF8009032F815600130F607264608BF47
:102560003E4636881E8032F81560B607264658BFAC
:102570003E4636881E8032F815607607264658BFDC
:102580003E4636881E8032F815603607264658BF0C
:102590003E4636881E8032F81560F606264658BF3D
:1025A0003E4636881E8032F81560B606264658BF6D
:1025B0003E4636881E8032F815607606264658BF9D
:1025C0003E4636881E8032F815603606264658BFCD
:1025D0003E4636881E8032F81560F605264658BFFE
:1025E0003E4636881E8032F81560B605264658BF2E
:1025F0003E4636881E8032F815607605264658BF5E
:102600003E4636881E8032F815603605264658BF8D
:102610003E4636881E8032F81560F604264658BFBE
:102620003E4636881E8032F81560B604264658BFEE
:102630003E4636881E8032F815607604264658BF1E
:102640003E4636881E8032F915600135B6F1FF3FEF
:102650002646C8BF3E463688182D1E80C6B2ACF846
:1026600000E01E80ACF8008019807FF471AFBDE8F7
:10267000F083000081B0ADF80200BDF8020040F226
:102680000801C2F20001088001B0704781B0ADF8C6
:102690000200BDF8020040F2B401C2F2000108805D
:1026A00001B07047FEE70000FEE700007047000041
:1026B0002DE9F04F81B000240520ADF80240FEF76F
:1026C000D1FD4FF0D845E32002262880C6F600460B
:1026D00043F208003080E72028804FF01208EF20F6
:1026E000A6F80080288041F2312030800120288027
:1026F0004FF480703080022028804FF4E0603080FA
:102700000320288041F230003080042028800820F7
:102710003480288040F207203080092028800A2059
:10272000348028800C20348028800D20348028803C
:102730000F20348028801020348028804FF0110B27
:1027400007203480A5F800B030804FF01309142022
:102750004FF0100AA5F800803480A5F8009034806E
:102760001427FEF77FFD41F29060A5F800A03080AD
:1027700040F22720A5F800B0308005204FF0100A65
:10278000FEF770FD1D20A5F8008030800520FEF7C3
:1027900069FD4FF40060A5F8009030802920288062
:1027A0002B20378028800B2030800520FEF75AFD33
:1027B00020202880212034802880302034802880E8
:1027C000072030803120288040F20770308032208E
:1027D0002880062030803520288040F20470308028
:1027E0003620288041F6047030803720288004206D
:1027F00030803820288039203480288040F20670CC
:1028000030803C20288040F2017030803D202880BC
:102810000F20308050202880512034802880EF20E5
:1028200030805220288053203480288040F23F108E
:102830003080602028804FF427403080612028803D
:10284000012030806A2028808020348028808120E8
:10285000348028808220348028808320348028801F
:102860008420348028808520348028809020348003
:1028700028809220A6F800A0288093203480288009
:1028800003219520318028804FF488703080972074
:10289000288098203480288041F218000722348054
:1028A0002980308040F273102A80308001B0BDE86A
:1028B000F08F000070470000FEF7F8BD7047000081
:1028C000B0B540F20010C2F20000FFF7E5FC40F2A4
:1028D0008000C2F200000A21FEF72EFB002818BF7C
:1028E000B0BD40F28004C2F200042046FEF73EFA7A
:1028F00002F022FB02F066F94DF2C9224EF2E743E4
:10290000C4F23642C3F6F37301F002FE01F026FD75
:1029100005462046FEF7FEFB0021CCF2F0112846CA
:1029200002F07CF90021C4F2201102F00FFA40F20B
:102930007C01C2F200010860B0BD00002DE9F04F3B
:1029400081B040F24810C2F20000FFF7A5FC40F24F
:102950007907C2F2000741F600043878C4F2010496
:1029600040F2981940F2991A40F29C1804F58065DB
:102970004FF0030BC2F20009C2F2000AC2F20008D3
:102980000126042804BF0120387007E088F8000001
:10299000402120460122FEF77DFD0136701E0328EE
:1029A000FBD8DFE810F0050023004100890300BFD9
:1029B000204604210022FEF76DFD40F29113C2F281
:1029C00000031878042800F2EE80DFE800F0034BE3
:1029D00059646F0020460821FEF756FD40F2911120
:1029E000C2F20001002840F0DE80D9E0204610212C
:1029F0000022FEF74FFD40F29413C2F20003187854
:102A0000042800F22481DFE800F0035F6D78850080
:102A100020460821FEF738FD40F29411C2F2000171
:102A2000002840F014810FE1204640210022FEF7EB
:102A300031FD40F29712C2F200021078042800F231
:102A40005A81DFE800F00375838E9B002046082141
:102A5000FEF71AFD40F29711C2F20001002840F083
:102A60004A8145E120460821FEF70EFD002800F0CE
:102A7000938040F291110020C2F2000192E000BF69
:102A8000387840F27801C2F20001012201300A7068
:102A9000387083F800B020460821FEF7F5FC40F2BC
:102AA0009111C2F2000100287AD17CE02046082171
:102AB000FEF7EAFC40F29111C2F2000100284FF04B
:102AC000000008BF03206DE020460821FEF7DCFC73
:102AD000002800F0B58040F294110020C2F20001FD
:102AE000B4E000BF387840F27801C2F2000104225D
:102AF00001300A70387083F800B020460821FEF7D4
:102B0000C3FC40F29411C2F20001002840F09C8006
:102B10009DE000BF20460821FEF7B6FC40F294116C
:102B2000C2F2000100284FF0000008BF03208DE032
:102B300020460821FEF7A8FC002800F0D58040F2CE
:102B400097110020C2F20001D4E000BF387840F2B3
:102B50007801C2F20001072301300B70387082F84F
:102B600000B020460821FEF78FFC40F29711C2F218
:102B70000001002840F0BC80BDE000BF20460821D5
:102B8000FEF782FC40F29711C2F2000100284FF0DC
:102B9000000008BF0320ADE040F29111C2F2000135
:102BA00008780130087040F29212C2F200021078E8
:102BB000042800F24C81DFE800F0030F1D283500E7
:102BC00020462021FEF760FC40F29211C2F2000183
:102BD000002840F03C8137E120462021FEF754FCDC
:102BE000002800F02D8140F292110020C2F2000175
:102BF0002CE100BF387840F27801C2F200010223D4
:102C000001300B70387082F800B020462021FEF7AA
:102C10003BFC40F29211C2F20001002840F0148106
:102C200015E100BF20462021FEF72EFC40F2921154
:102C3000C2F2000100284FF0000008BF032005E1A8
:102C400040F29411C2F2000108780130087040F29D
:102C50009512C2F200021078042800F24A81DFE8DF
:102C600000F0030F1D28350020462021FEF70CFC44
:102C700040F29511C2F20001002840F03A8135E19E
:102C800020462021FEF700FC002800F02B8140F2B6
:102C900095110020C2F200012AE100BF387840F20D
:102CA0007801C2F20001052301300B70387082F800
:102CB00000B020462021FEF7E7FB40F29511C2F25A
:102CC0000001002840F0128113E100BF20462021BE
:102CD000FEF7DAFB40F29511C2F2000100284FF036
:102CE000000008BF032003E140F29711C2F2000187
:102CF00008780130087099F80000042831D8DFE81E
:102D000000F00309111C250020462021FEF7BCFB22
:102D100038BB17E020462021FEF7B6FB90B100201B
:102D20001DE000BF387840F27801C2F200010822AD
:102D300001300A70387089F800B020462021FEF773
:102D4000A3FB70B199F80000013008E02046202173
:102D5000FEF79AFB00284FF0000008BF032089F817
:102D600000009AF80000042831D8DFE800F00309D9
:102D7000111C250028460221FEF786FB38BB17E010
:102D800028460221FEF780FB90B100201DE000BF25
:102D9000387840F27801C2F20001092201300A704D
:102DA00038708AF800B028460221FEF76DFB70B13A
:102DB0009AF80000013008E028460221FEF764FB83
:102DC00000284FF0000008BF03208AF8000098F8A0
:102DD000000004283FF6DCADDFE800F00E161E26EA
:102DE000040000BF28460821FEF74EFB00284FF0E4
:102DF000000008BF0320C9E528460821FEF744FB70
:102E000000287FF4C5AD16E028460821FEF73CFBFC
:102E100088B10020BAE500BF40F21000C2F2000005
:102E20000C21017088F800B028460821FEF72CFB21
:102E300000283FF4ADAD98F800000130A6E500BFD2
:102E400040F29211C2F2000108780130087040F29D
:102E50009312C2F200021078042800F29C80DFE88E
:102E600000F0030F1D28330028460221FEF70CFB5B
:102E700040F29311C2F20001002840F08C8087E0FC
:102E800028460221FEF700FB002800F07D8040F27A
:102E900093110020C2F200017CE000BF387840F2BC
:102EA0007801C2F20001013081F800B0387082F878
:102EB00000B028460221FEF7E7FA40F29311C2F271
:102EC0000001002864D166E028460221FEF7DCFA02
:102ED00040F29311C2F2000100284FF0000008BF39
:102EE000032057E040F29511C2F20001087801304A
:102EF000087040F29612C2F200021078042800F224
:102F00009680DFE800F0030F1D28330028460221D9
:102F1000FEF7BAFA40F29611C2F20001002840F022
:102F2000868081E028460221FEF7AEFA002800F0F4
:102F3000778040F296110020C2F2000176E000BFD7
:102F4000387840F27801C2F20001062301300B709C
:102F5000387082F800B028460221FEF795FA40F258
:102F60009611C2F2000100285ED160E028460221DD
:102F7000FEF78AFA40F29611C2F2000100284FF0E3
:102F8000000008BF032051E040F29311C2F200019B
:102F900008780130087040F29A12C2F200021078EC
:102FA000042839D8DFE800F0040A161E2A0000BF02
:102FB00028460821FEF768FA70BB18E02846082169
:102FC000FEF762FA98B140F29A110020C2F20001B5
:102FD00021E000BF40F21000C2F200000A2101709F
:102FE00082F800B028460821FEF74EFAA0B140F260
:102FF0009A11C2F20001087801300CE0284608213D
:10300000FEF742FA40F29A11C2F2000100284FF096
:10301000000008BF032008700421FFF7BABC00BFFE
:1030200040F29611C2F2000108780130087040F2B7
:103030009B12C2F200021078042839D8DFE800F0B1
:10304000040A161E2A0000BF28460821FEF71CFAB3
:1030500070BB18E028460821FEF716FA98B140F236
:103060009B110020C2F2000121E000BF40F21000DD
:10307000C2F200000B21017082F800B0284608213E
:10308000FEF702FAA0B140F29B11C2F200010878EB
:1030900001300CE028460821FEF7F6F940F29B11BA
:1030A000C2F2000100284FF0000008BF03200870A2
:1030B0001021FFF76EBC00BF284604210022FEF756
:1030C000E9F940F29E16C2F20006307804282CD8A6
:1030D000DFE800F0040A121A220000BF204608218F
:1030E000FEF7D2F908BB14E020460821FEF7CCF920
:1030F00078B1002118E000BF40F210010D20C2F2AB
:10310000000108700320307020460821FEF7BCF94A
:1031100058B13078411C07E020460821FEF7B4F989
:103120000021002808BF0321317040F29016C2F23E
:1031300000063078042830D8DFE800F0040A121DB9
:10314000260000BF20462021FEF79EF928BB17E08D
:1031500020462021FEF798F990B100211CE000BF25
:10316000397840F278020020C2F200021070481C48
:1031700038700320307020462021FEF785F960B1B9
:103180003078411C08E000BF20462021FEF77CF982
:103190000021002808BF0321317040F29F16C2F2BF
:1031A0000006307804282CD8DFE800F0040A121A50
:1031B000220000BF28460221FEF766F908BB14E092
:1031C00028460221FEF760F978B1002118E000BF1F
:1031D00040F210010E20C2F200010870032030708E
:1031E00028460221FEF750F958B13078411C07E01B
:1031F00028460221FEF748F90021002808BF0321D4
:10320000317040F29D16C2F20006307804282CD8A6
:10321000DFE800F0040A121A220000BF2846082145
:10322000FEF732F908BB14E028460821FEF72CF916
:1032300078B1002118E000BF40F210010F20C2F267
:10324000000108700320307028460821FEF71CF9A1
:1032500058B13078411C07E028460821FEF714F9E0
:103260000021002808BF03213170284604210122D3
:10327000FEF710F940F2B305C2F20005297859B102
:10328000012911D104F500604FF40041FEF7FCF86C
:10329000D0B1002128E000BF04F500604FF40041E8
:1032A000FEF7F2F8297880B1C8B2042812D00328BA
:1032B0001BD104F500604FF40041FEF7E5F8A0B122
:1032C0002878411C10E000BF297801312970C8B26C
:1032D0000428ECD104F500604FF40041FEF7D4F867
:1032E0000021002808BF0321297040F2B105C2F275
:1032F00000052978012915D031B9A4F5806008218D
:10330000FEF7C2F82978B0B1C8B2042818D0032853
:1033100020D1A4F580600821FEF7B6F8D0B1287856
:10332000411C16E0A4F580600821FEF7ADF808B155
:1033300000210EE0297801312970C8B20428E6D1B5
:10334000A4F580600821FEF79FF80021002808BF3F
:103350000321297040F2B205C2F200052978012943
:1033600016D031B904F500608021FEF78DF8297878
:10337000B8B1C8B2042819D0032821D104F50060DF
:103380008021FEF781F8D8B12878411C17E000BFF2
:1033900004F500608021FEF777F808B100210EE007
:1033A000297801312970C8B20428E5D104F50060FC
:1033B0008021FEF769F80021002808BF0321297049
:1033C00001B0BDE8F08F0000FEE7000098B0FEF706
:1033D0007BF800240120CDE91344CDE911440E907F
:1033E0004FF48031129002250EA80894CDE90644CE
:1033F000CDE90444CDE90F14CDE915511794FEF73A
:103400003BFB28B1EFF3108072B600BFFEE700BFB0
:103410000F20CDE909054FF4A060CDE90C0409A8FF
:1034200000210B94FEF708FA20B1EFF3108072B67A
:10343000FEE700BF4FF00209002703A8CDF80C906B
:103440000597FEF773F928B1EFF3108072B600BF4D
:10345000FEE700BF41F21800C4F20200016841F625
:10346000000A41F0400101600168C4F2010A01F064
:1034700040010E910E99016841F2000841F080016F
:1034800001600168002201F080010E910E9901682F
:10349000C4F2000841F0100101600168542401F0F9
:1034A00010010E910E99016841F020010160016840
:1034B00001F020010E910E99016841F480710160C4
:1034C0000068542100F480700E900E985046FDF76D
:1034D000E1FF0AF580663046442100224FF0440B9C
:1034E000FDF7D8FF0E9401240FA80EAD80E89002DE
:1034F00050462946FDF7CAFE2820CDE90E07504662
:1035000029461094FDF7C2FE0A20CDE90E07304689
:1035100029461094FDF7BAFE304641F60C4629467E
:10352000CDE90EB4CDE91079C4F20106FDF7AEFE87
:1035300048F28000CDE90E0706F57D702946109708
:10354000FDF7A4FE0820CDE90E07AAF58060294604
:103550001094FDF79BFE40F2481008F58061C2F21E
:10356000000041F63F73CDE90E77092280E886001E
:10357000C3608761FEF73CFD20B1EFF3108072B6A7
:10358000FEE700BF40F24810C2F200000EA9FEF7AD
:10359000E5FC28B1EFF3108072B600BFFEE700BF74
:1035A00040F2B800C2F200004FF0204140F2041295
:1035B000CAF200020623002480E81E004FF4805166
:1035C000C0E90A140F21FF22CDE90E11CDE9102127
:1035D00011211027CDE913140EA90022C0E90447D8
:1035E000C0E90644C0E90844C0E90C44846312976A
:1035F000FEF71CFC20B1EFF3108072B6FEE700BFAF
:103600001C20C4F20100016840F2780B41F4806193
:103610000160C2F2000B42F20041C4F201015846BF
:1036200040F8081F047304754FF46021C0E9014499
:103630000124C1610461FDF79DFB28B1EFF3108007
:1036400072B600BFFEE700BF0D20CDE90E040BF1FE
:10365000080400250EA920461095FDF7C1FA28B1EF
:10366000EFF3108072B600BFFEE700BF40F200101B
:10367000C2F2000041F2873141F63F72CDE90E55AA
:10368000C0E90081C0E902528561FEF7B1FC28B1B2
:10369000EFF3108072B600BFFEE700BF40F20010EB
:1036A000C2F200000EA9FEF759FC28B1EFF310801A
:1036B00072B600BFFEE700BF40F24815C2F2000537
:1036C0002846FEF7A3FD2846FEF760FD2046FDF7DD
:1036D00021FD40F20014C2F200042046FEF796FDE0
:1036E0002046FEF753FDFEF7E3FF00204FF00008F1
:1036F000FEF794FE0020FEF7BDFF4FF4FC60FEF7DE
:10370000C5FF0FF218410020FEF7E0FE0FF2244142
:103710001820FEF7DBFE0020FEF7ACFF4FF47840E8
:10372000FEF7B4FF002046F24655C4F23400C0F65E
:1037300000050EAF0190384614212A46CDF80080CE
:10374000FCF770FD48203946FEF7C0FE0020C4F2A9
:10375000140046F25D5209AC0190C0F6000220460A
:103760001421CDF80080FCF75DFDA8202146FEF76E
:10377000ADFE40F2000940F2000AC4F2A009C4F212
:10378000A01A4FF0000800BF40F21004C2F200047B
:1037900020780A2840F0B5800020FEF76BFF482013
:1037A0003946FEF793FE4FF6FF70FEF763FFA82041
:1037B00009A9FEF78BFE9BF80100032818D0022808
:1037C00041461BD0012840F084809BF8000000F0A7
:1037D000F9FF49F69A1249F69913C9F69912C3F6F8
:1037E000B97301F003F800F0B9FD8146002170E0E3
:1037F0005FEAC87038D141466BE000BFC80768D1A6
:1038000000214846C4F2201101F012FC9BF8001080
:103810000646084600F0D6FF044630460D4601F045
:10382000D1F949F69A1249F6991306460F462046F1
:10383000294646F24655C9F69912C3F6B973C0F641
:10384000000500F0D3FF324641F60C463B46C4F279
:1038500001060EAF00F0B4FD00F080FD4146814648
:1038600008F1010135E000BF00214846C4F22011F3
:1038700001F0DEFB9BF800100446084600F0A2FFB2
:10388000054620460E4601F09DF949F69A1249F682
:10389000991304460F46284646F24655314641F6EE
:1038A0000C46C9F69912C3F6B973C0F60005C4F206
:1038B000010600F09BFF22463B460EAF00F080FD64
:1038C00000F04CFD4146814608F1010100208BF8D3
:1038D00001004846884601F075F909AC46F25D5290
:1038E0000B46009020461421C0F600020193FCF71D
:1038F00099FCA8202146FEF7E9FD40F21004C2F22F
:10390000000420780B2840F0BA804FF6FF70FEF7D5
:10391000B1FE48203946FEF7D9FD0020FEF7AAFE89
:10392000A82009A9FEF7D2FD9BF80100032819D0B1
:10393000022841461CD0012840F08D809BF80000F1
:1039400000F040FF49F69A1249F69913C9F6991208
:10395000C3F6B97300F04AFF00F000FD8246002173
:1039600079E000BF5FEAC8703CD1414673E000BF18
:10397000C80770D100215046C4F2201101F058FB55
:103980009BF800100446084600F01CFF0546204640
:103990000E4601F017F949F69A1249F699130446B2
:1039A0000F46284646F24655314641F60C46C9F6C2
:1039B0009912C3F6B973C0F60005C4F2010600F00F
:1039C00015FF224640F210043B46C2F200040EAF3F
:1039D00000F0F6FC00F0C2FC4146824608F101010D
:1039E00039E000BF00215046C4F2201101F020FB55
:1039F0009BF800100446084600F0E4FE0546204609
:103A00000E4601F0DFF849F69A1249F6991304467A
:103A10000F46284646F24655314641F60C46C9F651
:103A20009912C3F6B973C0F60005C4F2010600F09E
:103A3000DDFE224640F210043B46C2F200040EAF07
:103A400000F0BEFC00F08AFC4146824608F101010C
:103A500000208BF801004FF6FF708846FEF70AFE43
:103A6000504601F0AFF80B460090384614212A4624
:103A70000193FCF7D7FB48203946FEF727FD207855
:103A80000A2815D020780B2812D000208BF80000CF
:103A90008BF801000020FEF7EDFD48203946FEF7C7
:103AA00015FD0020FEF7E6FDA82009A9FEF70EFD92
:103AB0000020FEF7DFFDDBF8040001F083F803AC23
:103AC0000B4600902046142120A20193FCF7AAFB8C
:103AD00078202146FEF7FAFCDBF8044050464946C0
:103AE00001F072FB0146204601F00FF918B9306869
:103AF00040F040003060DBF804404846514601F099
:103B00008DF80146204601F007F900287FF43CAE0D
:103B1000306820F04000306036E600BF20202020D2
:103B200020202053595354454D2020202020202070
:103B30000000000020202020204F47525A455741C6
:103B40004E494120202020200000000054656D7067
:103B50002E20416B742E203A20252E31662A4320D8
:103B600020202020000000005FEA400C08BF91F0F8
:103B7000000F4FEA8C234FEAC12243EA51514FEA2A
:103B80001C5018BF00F5F0404FEA300018BF41F05C
:103B900000415FEA6C5C00F02980BCF1FF3F08BF88
:103BA00040F080407047130C06BF12044FF0100C19
:103BB0004FF0000C130E04BF12020CF1080C130F8F
:103BC00004BF12010CF1040C930F04BF92000CF11E
:103BD000020CD30F04BF52000CF1010C11464FF040
:103BE0000002A0F11F00A0EB0C00704711F0004F85
:103BF00008BF704731F000413FF4D5AF0B0C06BF52
:103C000009044FF0100C4FF0000C0B0E04BF09021A
:103C10000CF1080C0B0F04BF09010CF1040C8B0F05
:103C200004BF89000CF1020CCB0F04BF49000CF15A
:103C3000010CCCF1200322FA03F341EA030102FA5A
:103C40000CF2A0EB0C0000F10100704723F07F475D
:103C500020F07F4C80EA030000F00040ACEB07034B
:103C600003F57C5303F1FF032DE9804909B44FEAC2
:103C7000144324EA03484FEA154B25EA0B4E0FF292
:103C8000042606EB13273E7803FB0667C7F50007FB
:103C900007FB06F64FEAD64606F102064FEA54370E
:103CA00007FB066CCCF1005C4FEA1C472CEA074C82
:103CB0000CFB06F507FB06F404EB15464FEA9616D7
:103CC00049085FEA320234BF00204FF000404FEA5B
:103CD000D13706FB07FC4FEA1C4C0CFB0BF7D21B41
:103CE00003FB0CF761EB07010CFB0EF7B0EB074091
:103CF00072EB17420CFB08F734BFA2EB0742B2EBA2
:103D0000074261EB17414FEA0C444FEA910706FB6B
:103D100007FC4FEA1C4C0CFB0BF7B0EBC74072EBF7
:103D2000573203FB0CF734BFA2EBC742B2EBC742DA
:103D300061EB57310CFB0EF7B0EBC70072EB57721B
:103D40000CFB08F734BFA2EBC702B2EBC70261EB72
:103D500057714FEA816141EA92114FEA826242EA69
:103D600090124FEA806004EBCC04039F4FEAD137F6
:103D700006FB07FC4FEA1C4C0CFB0BF7D21B03FBAA
:103D80000CF761EB07010CFB0EF7B0EB074072EB91
:103D900017420CFB08F734BFA2EB0742B2EB074215
:103DA00061EB17414FEA8C5504EB9C244FEA9107D5
:103DB00006FB07FC4FEA1C4C0CFB0BF7B0EBC740B3
:103DC00072EB573203FB0CF734BFA2EBC742B2EBE6
:103DD000C74261EB57310CFB0EF7B0EBC70072EB3B
:103DE00057720CFB08F734BFA2EBC702B2EBC70255
:103DF00061EB57714FEA816141EA92114FEA8262A9
:103E000042EA90124FEA806015EB4C2544F1000421
:103E10004FEAD13706FB07FC4FEA1C4C0CFB0BF7B3
:103E2000D21B03FB0CF761EB07010CFB0EF7B0EBA9
:103E3000074072EB17420CFB08F734BFA2EB0742B6
:103E4000B2EB074261EB17414FEA813141EA9241FF
:103E50004FEA823242EA90424FEA80304FEA0C76D3
:103E600015EB1C1544F1000448EA03434EEA0B48E5
:103E70004FF0000EB2EB080C71EB030724BF624653
:103E800039464EEB0E0E4FF0000B001852414941DF
:103E90004BEB0B0BB2EB080C71EB03077BF1000B48
:103EA00024BF624639464EEB0E0E4FF0000B001851
:103EB000524149414BEB0B0BB2EB080C71EB030782
:103EC0007BF1000B24BF624639464EEB0E0E51EAE1
:103ED000020718BF46F0010616EB0E7655F10002F8
:103EE00054F1000103D5BDE88901BDE80088BDE8B3
:103EF0008901BDE80048B619524141EB0101A3F127
:103F00000103704780807F7E7D7C7B7A797877762D
:103F100076757473727171706F6E6E6D6C6C6B6AA6
:103F20006A69686867666665646463636261616044
:103F3000605F5F5E5E5D5D5C5C5B5B5A5A595958C1
:103F4000585757565655555554545353525252512B
:103F5000515050504F4F4F4E4E4D4D4D4C4C4C4B81
:103F60004B4B4A4A4A4949494848484747474746C8
:103F70004646454545444444444343434342424204
:103F8000424141419C46002B30D477002BD04FEA70
:103F900037071CB503B44FF010004FF01001BAF111
:103FA000000F06D0BCF1000FDCBF40F0080040F06D
:103FB00008014FF000000FBCBDE810400BF1010BF1
:103FC000BBF1010F08BF5FEA170722BF12F1010220
:103FD00011F101014FF0004143F1000300F00040F6
:103FE00043EA00007047F9D35708D0E746EA06468F
:103FF0004FEA164613F1400F1FDD13F1200FDFBF0C
:1040000016430A46002120335B42BED0C3F120078D
:1040100046EA06464FEA164602FA07F746EA070658
:1040200022FA03F2C3F1200701FA07F742EA070276
:1040300021FA03F14FF00003A7E746EA020646EA39
:1040400006464FEA164646EA0106BCBF46EA064661
:10405000360C4FF000034FF000024FF0000194E7E0
:104060002DE9804C70B49A46934691E8380007C811
:1040700031EA400C48BF34EA430C03D5FFF7E6FDB4
:10408000FFF780FFF0BCBDE8008C2DE9804C70B4D8
:104090009A46934691E8380007C810F0804F08BF51
:1040A00013F0804F03D100F005F8FFF76BFFF0BC71
:1040B000BDE8008C20F07F4723F07F4C80EA0300AE
:1040C00000F0004007EB0C03A3F57C53A3F1FE03C3
:1040D00092F0000F00F0B38095F0000F00F07780B1
:1040E0002DE901494FEA114021EA00484FEA144600
:1040F00024EA064700FB06FC08FB06F607FB08F867
:1041000018EB06484CEB164C00FB07F718EB07487A
:104110004CEB17404FEA124B22EA0B4E4FEA154682
:1041200025EA06470BFB06FC0EFB06F607FB0EFE18
:104130001EEB064E4CEB164C0BFB07F71EEB074E27
:104140004CEB174B18EB0B0840F1000018EB0E0B73
:1041500058EB000840F100008F1A4FF000014FF0BB
:1041600000063CBFC943661B14BFB5EB040C00211D
:104170003CBFC943F61B4FEA174427EA04454FEA00
:104180001C472CEA074C04FB076205FB07F70CFBF6
:1041900005F616EB074642EB174204FB0CFC16EB48
:1041A0000C4642EB1C421BEB060658EB0202414157
:1041B0004EEA8E0E46EA9E0601D5BDE80189B61983
:1041C000524141EB0101A3F10103BDE801894FEA2E
:1041D000144524EA05464FEA114721EA074C05FB3E
:1041E00007F406FB07F70CFB06F111EB074144EB64
:1041F000174405FB0CFC11EB0C4144EB1C444FEA4B
:10420000124722EA074C05FB07F206FB07F70CFBF7
:1042100006F616EB074642EB174205FB0CFC16EBC5
:104220000C4642EB1C456A1854F1000148BF704728
:10423000B619524141EB0101A3F10103704795F01A
:10424000000F37D04FEA114221EA02464FEA1447E5
:1042500024EA074C02FB07F106FB07F70CFB06F408
:1042600014EB074441EB174102FB0CFC14EB0C442C
:1042700041EB1C414FEA154725EA074C02FB07F5C5
:1042800006FB07F70CFB06F616EB074645EB174552
:1042900002FB0CFC16EB0C4645EB1C42121951F1CB
:1042A000000148BF7047B619524141EB0101A3F12B
:1042B000010370474FEA144524EA05464FEA1147C7
:1042C00021EA074C05FB07F106FB07F70CFB06F29A
:1042D00012EB074241EB174105FB0CFC12EB0C42C1
:1042E00051EB1C414FF0000648BF7047921841EB5C
:1042F0000101A3F101037047490050EAC12018BF32
:1043000004204A0D18BF40F0010040F2FF72B2EBEA
:10431000515F08BF40F00200012808BF0520704728
:1043200030380A2801D20120704700207047000071
:1043300010B500290AD00878002807D0054878442D
:10434000FCF776FB002801D0002010BD024878441D
:1043500010BD0000562200004E22000021F0004255
:1043600001F00043A2F16052B2F5801F28BFD2F1E4
:104370007F6C0BD95FEA001C43EAC20242EB50702B
:1043800018BF704728BF20F001007047B2F5801FAA
:10439000BCBF184670474FEA410C1CF5001F02D203
:1043A000084600F00CBF70B500F0CAFA00000089A2
:1043B000FFF7F6BF4FF00040A0F580007047000007
:1043C00010B591EA030F48BF83F0004300F1148356
:1043D000841A71EB030C05D2121943EB0C03001B7A
:1043E00061EB0C014FEA1154A4EB135CDFF81CE104
:1043F0001EEA430F18BF9EEA445F00F0748021EA72
:10440000045123EA0E0343F48013DCF1200E32D36F
:1044100022FA0CFE10EB0E0023FA0CFE41EB0E010B
:10442000CCF1200E03FA0EFE10EB0E00CCF1200EA4
:1044300051F10001B1F5801F32D201EB045112FAA3
:104440000EF2BDE8104058BF7047401C38BF5FEA0D
:10445000420218BF7047002814BF20F0010041F14C
:1044600000014FEA410313F5001F38BF7047A1F167
:10447000C04100F0B3BA012A43EB0302ACF1200CB7
:10448000DCF11F0E32BF4FF0000E23FA0CF310EBDD
:10449000030041EB0451B4EB115FD0D0A1EB045108
:1044A00001F58011490801EB04515FEA30000ED399
:1044B00050F1000038BF12FA0EFE08D1BDE81040DE
:1044C000C9E7401C38BF5FEA4202CAD1C3E7BDE872
:1044D00010404FEA410313F5001F38BF7047A1F1A8
:1044E000C04100F07BBA9EEA445F08D011EA5E0F3B
:1044F000BDE8104004BF01F0004100207047BDE856
:10450000104070B500F01CFA64FBBE3E0000E0FFF6
:104510002DE9C04130B4DFF8A4C23CEA111418BF41
:104520003CEA131400F0ED801CEA111481EA030543
:1045300044EAD57418BF1CEA131500F0C880A4EB38
:10454000050404F17F7404F500344FF0004545EA9A
:10455000C12145EAC32341EA505143EA52534FEA8D
:10456000C0204FEAC222994208BF904200F09D80CD
:104570004FEA13650FF24416765D4FEA134506FBCA
:1045800005F7C7F1807706FB07F74FEAD737A7FB98
:1045900003687642A7FB06CEC8F5803838BFA8F17D
:1045A000010807FB08E6A6FB028C4FF0000EE6FBB5
:1045B00003CEDCF1000CCEF1004E38BFAEF1010E9F
:1045C000A6FB0C584FF00007E6FB0E87A1FB08C6C0
:1045D000A0FB07CE16EB0E064FF0000545F10005D7
:1045E000E1FB076515F1E04E7EBFA4F580345FEA7C
:1045F00046066D4116F1800745F100054FEA172781
:1046000047EA05674FEA15254FEA0666A6F1DE463A
:10461000B6F1805F20D9384605EBC47124F0010C57
:1046200001EB0C11BCF1FE6F02D8F0BCBDE80081BB
:1046300024425CBF01F5801E9EEAC47F02D4F0BC18
:10464000BDE80081244200F13980A1F1C041F0BCF5
:10465000BDE8004100F0C2B94FEAD02040EA415025
:104660004FEAD1214FEAD22242EA43524FEAD32302
:10467000A7FB028607FB036605FB02661EEA0E0F18
:1046800058BFA6EB0056B6EB00564FEA520E4EEA64
:10469000C37E18EB0E0E56EB530EBCD518EB02087A
:1046A0005E417F1C55F10005B5E74FF480154FF0D2
:1046B00000074FF000064FF00008ACE701F1C041E1
:1046C00001F000414FF00000F0BCBDE800810CEAB1
:1046D000131511EA0C1F00D00CE013EA0C1F00F0B8
:1046E00026804FF0000081EA030101F00041F0BC98
:1046F000BDE80081F0BCBDE8004181EA030100F0A3
:104700006DB9F0BCBDE8004170B500F019F900BF0B
:10471000097EFC3E00F007B84FF0000081EA03017B
:1047200001F00041704781EA030100F057B9F0BC85
:10473000BDE8004122494FF000007047FFFDFBF942
:10474000F7F5F4F2F0EEEDEBE9E8E6E4E3E1E0DEC4
:10475000DDDBDAD8D7D5D4D3D1D0CFCDCCCBCAC836
:10476000C7C6C5C4C2C1C0BFBEBDBCBBBAB9B8B75D
:10477000B6B5B4B3B2B1B0AFAEADACABAAA9A8A850
:10478000A7A6A5A4A3A3A2A1A09F9F9E9D9C9C9B1E
:104790009A999998979796959594939392919190C9
:1047A0008F8F8E8E8D8C8C8B8B8A8989888887875A
:1047B0008685858484838382828181800000FF07CF
:1047C0000000F87FB0FA80F310FA03F10AD0C3F1C9
:1047D0001D0303F580634FEA03524FEA415002EB99
:1047E000D12170474FF000007047000070B5DFF82E
:1047F00048C11CEA111E1EBF1CEA13159EEA0C0FCD
:1048000095EA0C0F00F06F8081EA03044EEAD47E33
:10481000AE4421EA4C1123EA4C1341F4801143F4D5
:104820008013AEF17F7EA1FB024CA0FB036536191D
:1048300055EB0C05A1FB034C4CF10003A0FB021C43
:1048400016EB0C06654153F10003094218BF46F010
:10485000010613F4007F0BD14FEA03314FEA053014
:1048600041EA155140EA165034036FF003020AE0A2
:104870004FEAC3214FEAC52041EA555140EA56505C
:10488000F4026FF0020202EB2E4201EB025585EAC0
:10489000CE710AD05FEA440C18BF24F0004450F1F6
:1048A000000041F1000120EAD47040F2FE7C624534
:1048B00000D270BDA84214BF4FF080444FF0404476
:1048C000002E08BF0024BEF1806FA8BFA1F1C04137
:1048D000BDE8704080F2828001F1C04101F00041EA
:1048E0004FF0000070470CEA13159EEA0C0F18BF3A
:1048F00095EA0C0F06D081EA030E4FF000000EF08F
:10490000004170BD00F01CF88900013E00F007B8BE
:1049100000F009B84FEA430C5FEA5C5C08D081EA1A
:10492000030100F05BB84FEA410C5FEA5C5CF6D132
:1049300002494FF0000070470000FF070000F87FB9
:104940000EF1020E2EF0030E5EF8046B364205D413
:10495000012A43EB030515F5001F12D8012841EB8E
:10496000010C1CF5001F0CD80ED14FEAD17C0CEBCA
:104970004C0C0CF1020C15F5001F08BF4CEBD37C5E
:1049800004E04FF0080C01E04FEAD37C0CEB4C053F
:1049900026FA05F606F00706B6F1040C06D20EEB71
:1049A000860CBDE870404CF0010C6047DFE80CF06D
:1049B000090B02024FF00041A1F500214FF0000069
:1049C00070BD19461046012851EB010418BFD4F5FB
:1049D000001484BF002001F0004170BD0808A0F55C
:1049E00000114FEA3101704710B591EA030F48BF3B
:1049F00083F000433FF5ECAC841A71EB030C07D253
:104A00008CF0004C121943EB0C03001B61EB0C0102
:104A10004FEA1154A4EB135CDFF8A4E11EEA430F44
:104A200018BF9EEA445F00F0B48021EA045123EAF3
:104A30006E035242C3EB6E0338BF5B1EDCF1200EE7
:104A400025D322FA0CFE10EB0E0043FA0CFE41EBCC
:104A50000E01CCF1200E03FA0EFE10EB0E00CCF18D
:104A6000200E51F1000129D401EB045112FA0EF28B
:104A7000BDE8104058BF7047401C1CBFB2F1004F4A
:104A8000704700280CBF491C20F00100704712EB52
:104A9000020E43EB030218BF4FF0010E4EEA420232
:104AA000ACF1200CDCF11E0E56D943FA0CFE10EBD3
:104AB0000E00CCF11E0E51F1FF31D5D50EF1010ED5
:104AC00012FA0EFE404141EB010101EB445C5FEA4A
:104AD0005C5C10D901EB045110EBDE7038BFBEF105
:104AE000004FBDE8104018BF704700280CBF491C9C
:104AF00020F00100704734D24FEAD42C24F4006433
:104B000011F500111BD0B1FA81F20B3AA41AA41EC0
:104B1000D2F12003914030FA03F31943904001EBA6
:104B2000CC7101EB0451002CBDE81040A8BF7047C8
:104B300001F1C04101F000414FF000007047B0FAB0
:104B400080F310FA03F102D1BDE810407047E41A77
:104B5000173C4805C90AE2E701EB0451BDE81040E3
:104B6000704749104FEA300001EB0451BDE8104096
:104B700002E04FF0000170474A0008BF0042F8D041
:104B8000B2F5001F28BF704701F000414FF0000050
:104B900070479EEA445F07D011EA5E0FBDE81040FF
:104BA00004BF002100207047BDE8104070B5FFF73A
:104BB000C7FE00BF40DFF63E104683F0004170475D
:104BC0000000E0FF43004FEAD30C4FEA3C0C4340A7
:104BD0001FBF40070CF1605113F0FE4F70471CF0EF
:104BE000006F03D10CF00041002070470CF000432F
:104BF00043EA507040EACC0010B500F09AFA00BFCA
:104C0000000000924FEA0001FFF7E8BE4FF00041BC
:104C1000A1F500214FF000007047000090EA010F5D
:104C200048BF81F0004100F1D682421A3CBF801A91
:104C300089184FEAD052A2EBD1534FF07F4C1CEAB7
:104C4000410F18BF9CEA026F00F03B804FF0004C10
:104C50004CEA00204CEA012121FA03FC10EB0C0C79
:104C60001ED202F1FF325FEA1C2040EBC25038BF77
:104C700070471CF07F0F4FEA400C18BFBCF17F4F0C
:104C800038BF7047C3F12003994008BF20F00100EE
:104C9000BCF17F4F38BF7047A0F1C04000F08FBA21
:104CA0004FEA3C00000A40EBC25028BF1CF0FF0F47
:104CB0004FEA400CE6D018BFBCF17F4F38BF7047B9
:104CC000EAE79CEA026F05D010EA5C0F08BF00F02B
:104CD0000040704710B500F02CFA00BF64FBBE3EE8
:104CE00010B500F0F5F80CBF0120002010BD10B584
:104CF00000F0EEF814BF0120002010BD10B500F048
:104D00002FF98CBF0120002010BD10B500F028F94C
:104D10002CBF0120002010BD10B500F055F994BF44
:104D20000120002010BD10B500F04EF934BF012065
:104D3000002010BD401058BFC0F14040491058BF7E
:104D4000C1F140418142EFF3008070474FF47F0C86
:104D50001CEAD0121EBF1CEAD11392EA0C0F93EA90
:104D60000C0F00F0858090EA010F48BF42F480727A
:104D700040F4000C41F400002CF07F4120F07F4013
:104D800000B5A2EB030281420FF2081CACEB504EBF
:104D90009EF800E0C0F100004FEA4E0E00FB0EFC52
:104DA00038BF49004FEA2C1C0CFB0EF34FEACE1E15
:104DB0000EEB635E4FEA112C0EFB0CFC4FEAC12197
:104DC0004FEA1C5300FB031102F5FA024FEA112CC3
:104DD0000EFB0CFC4FEA01314FEADC4C00FB0C11DE
:104DE00042EB2242C14228BF09184CEB03335DF865
:104DF00004EB10EB410143EBC250B2F57C0F38BF1E
:104E0000704729D512F0F00F1CBF00F1C04000F030
:104E100000407047008182838485868788898B8CD7
:104E20008D8E8F919293959697999A9C9D9FA0A213
:104E3000A3A5A7A8AAACAEB0B2B3B5B7B9BCBEC063
:104E4000C2C5C7C9CCCED1D4D7D9DCDFE2E6E9EC04
:104E5000F0F3F7FAFE0000004FEA400C0CF1807C02
:104E6000BCF17E4F28BF7047B0F1C04000F0A7B939
:104E70000CEAD11390EA010F48BF42F480726245F8
:104E800038BF634507D213F47F0F16D080EA0100C4
:104E900000F00040704710B500F04BF9097EFC3E71
:104EA00000F005B880EA010000F00040704780EA99
:104EB000010000F0004000F082B912F47F0F04BF3F
:104EC0000248704780EA010000F079B90000C07F15
:104ED00050EA010C00F113801CF5000F58BFBCF51F
:104EE000000F01D48842704707D710F5000F58BF54
:104EF00011F5000F15D488427047894270471CF5A0
:104F0000000F04D5BCF5000FF7D5814270474FF074
:104F1000807C1CEB400F38BF1CEB410F01D281425B
:104F2000704710B500F005F9922449004FF0005089
:104F30004FF08051FFF7FEBEB0FA80F310FA03F293
:104F4000C3F19D030AD0D90501EB1220530638BFE7
:104F5000704700F1010008BF20F001007047000019
:104F600050EA010C00F113801CF5000F58BFBCF58E
:104F7000000F01D48842704707D710F5000F58BFC3
:104F800011F5000F15D488427047894270471CF50F
:104F9000000F04D5BCF5000FF7D5814270474FF0E4
:104FA000807C1CEB400F38BF1CEB410F01D28142CB
:104FB000704710B500F0BDF8922449004FF08050C2
:104FC0004FF00051FFF7B6BE50EA010C00F113801C
:104FD0001CF5000F58BFBCF5000F01D48842704784
:104FE00007D710F5000F58BF11F5000F15D48842F0
:104FF0007047894270471CF5000F04D5BCF5000FBF
:10500000F7D5814270474FF0807C1CEB400F38BFD2
:105010001CEB410F01D28142704710B500F089F8B6
:10502000922449004FF000504FF08051FFF782BEAC
:105030004FF47F0C1CEAD0121EBF1CEAD11392EA77
:105040000C0F93EA0C0F00F0478090EA010F48BF65
:1050500042F480724FF0004C4CEA00204CEA0121EF
:1050600002EB0302A0FB0113A2F50002002918BF06
:1050700043F001035B0028BF4FEA330342EB2242B7
:105080005FEA132C4CEBC2502EBFBCEB436FB2F562
:105090007C0F70474FEA036CBCF1004F08BF20F053
:1050A0000100B2F57C0F38BF70470BD582F0FF02CC
:1050B00012F5803FC8BF704700F1C040D8BF00F074
:1050C0000040704700F5000C5FEA4C0C48BF704789
:1050D000B0F1C04000F073B80CEAD11390EA010FB0
:1050E00048BF42F48072624538BF634504D280EA0B
:1050F000010000F00040704710B500F01AF800BF42
:105100008900013E00F007B800F009B85FEA410CE1
:105110005FEA1C6C08D080EA010000F050B85FEA3A
:10512000400C5FEA1C6CF6D14FF00040A0F5800007
:1051300070470EF1020E2EF0030E5EF8044B24426F
:1051400004D44FEA4102B2F17F4F11D84FEA400335
:10515000B3F17F4F0CD80ED14FEAD07C0CEB4C0C46
:105160000CF1020CB2F17F4F08BF4CEBD17C04E094
:105170004FF0080C01E04FEAD17C0CEB4C0324FA11
:1051800003F404F00704B4F1040C06D20EEB840C13
:10519000BDE810404CF0010C6047DFE80CF0070858
:1051A00002024FF00040A0F5800010BD084642000A
:1051B00018BFD2F1807288BF00F0004010BDFF21FF
:1051C00041EAD050C005704790EA010F48BF81F016
:1051D00000413FF52AAD421A04D882F00042A0EB0C
:1051E000020011444FEAD052A2EBD1534FF07F4C52
:1051F0001CEA410F18BF9CEA026F4AD04FF0004CE6
:105200004CEA00204CEA012121FA03FCB0EB0C0C23
:105210000FD412F0FE0F36D05FEA4C001DD50012FD
:1052200040EBC25038BF70471CF03F0F18BF7047AB
:105230000BE05FEA1C20A2F1010240EBC25038BF34
:1052400070471CF07F0F18BF7047C3F120039940CF
:1052500014BF401E20F0010070474FEA122380085F
:1052600008BF7047B0FA80FCA2EB0C02CCF1280C0E
:1052700060FA0CF093EA122F04BF00EBC2507047A3
:105280004FEAC3707047130A5FEADC1008BF70472B
:10529000F6E79CEA026F04D010EA5C0F08BF00201A
:1052A000704710B5FFF745FF40DFF63E81F0004044
:1052B0007047FBF739B9000002400000000000A071
:1052C0000000000005400000000000C800000000D1
:1052D0000C4000000000409C00000000194000004D
:1052E0000020BCBE0000000034400000BFC91B8E7F
:1052F00000000004B5400000504BCFD06607E2CF5D
:10530000010000006C4100003E8251AADFEEA7348C
:1053100001000000D9420000DCB5A0E23A301F973E
:10532000FFFFFFFFB4450000FD25A0C8E9A3C14F62
:10533000FFFFFFFFFF3F00000000008000000000B3
:10534000FF3F00000000008000000000010200009C
:105350000000000000000102030406070809000025
:105360000000010203040000000000000000000033
:10537000000000000000000000000000000000002D
:10538000000000000000000000000000000000001D
:105390000000000000000000800180018001800109
:1053A00080018001800180018001800180018001F5
:1053B000800100000000800180010000000000006A
:1053C00000000000000000000000CC00CC00CC0079
:1053D000CC00CC00CC000000000000000000000069
:1053E00000000000000000000000000000000000BD
:1053F00000000000000000000000000000000000AD
:105400000000600C600C600C30063006FE1FFE1FB2
:10541000300638071803FE1FFE1F180318038C01FF
:105420008C018C01000000008000E003F80F9C0E4E
:105430008C1C8C188C009800F801E007800E801CF2
:105440008C188C189C18B80CF00FE00380008000BA
:105450000000000000000000000000000E181B0CFF
:10546000110C11061106110311039B018E01C038A6
:10547000C06C60446044304430441844186C0C38AC
:105480000000000000000000E001F00338071806EB
:1054900018063003F001F000F8009C310E33061EB0
:1054A000061C061C063FFC73F021000000000000F3
:1054B000000000000000000000000C000C000C00C8
:1054C0000C000C000C0000000000000000000000B8
:1054D00000000000000000000000000000000000CC
:1054E0000000000000000000000200038001C00076
:1054F000C00060006000300030003000300030003C
:1055000030003000300060006000C000C00080014A
:10551000000300020000000020006000C0008001C5
:1055200080010003000300060006000600060006D6
:105530000006000600060003000380018001C00091
:10554000600020000000000000000E001B001100A1
:105550001B000E0000000000000000000000000022
:10556000000000000000000000000000000000003B
:10557000000000000000000000000000000000002B
:10558000000080018001800180018001FC3FFC3F20
:105590008001800180018001800100000000000086
:1055A00000000000000000000000000000000000FB
:1055B00000000000000000000000000000000000EB
:1055C00000000000000000008001800100010001D7
:1055D000800000000000000000000000000000004B
:1055E0000000000000000000000000000000E007D4
:1055F000E0070000000000000000000000000000C4
:10560000000000000000000000000000000000009A
:10561000000000000000000000000000000000008A
:105620000000000000000000C000C00000000000FA
:105630000000000000000000000C000C0006000646
:105640000006000300030003800380018001800145
:10565000C000C000C000600060000000000000004A
:105660000000000000000000E003F007380E180CF6
:105670000C180C180C180C180C180C180C180C180A
:105680000C18180C380EF007E003000000000000B2
:10569000000000000000000000018001C001F001D6
:1056A00098018801800180018001800180018001D2
:1056B0008001800180018001800100000000000065
:1056C0000000000000000000E003F80F180C0C18A8
:1056D0000C1800180018000C000600038001C00020
:1056E000600030001800FC1FFC1F000000000000DC
:1056F0000000000000000000E001F807180E0C0C8C
:105700000C0C000C0006C003C007000C00180018A9
:105710000C180C18180CF807E0030000000000003B
:105720000000000000000000000C000E000F000F41
:10573000800DC00C600C600C300C180C0C0CFC3F85
:10574000FC3F000C000C000C000C000000000000EE
:105750000000000000000000F80FF80F180018000B
:105760000C00EC03FC071C0E001C001800180018AD
:105770000C181C0C180EF807E003000000000000D5
:105780000000000000000000C007F00F381C1818CF
:1057900018000C00CC03EC0F3C0E1C1C0C180C1851
:1057A0000C18181C380EF007E00300000000000081
:1057B0000000000000000000FC1FFC1F000C0006A1
:1057C0000006000380038001C001C000E00060000B
:1057D0006000700030003000300000000000000069
:1057E0000000000000000000E003F007380E180C75
:1057F000180C180C3806F007F007180C0C180C18C9
:105800000C180C18380CF80FE00300000000000022
:105810000000000000000000E003F007380E1C0C40
:105820000C180C180C181C1C381EF81BE01900185A
:10583000000C000C1C0EF807F00100000000000036
:105840000000000000000000000000000000000058
:105850000000800180010000000000000000000046
:105860000000000000008001800100000000000036
:105870000000000000000000000000000000000028
:105880000000800180010000000000000000000016
:105890000000000000008001800100010001800084
:1058A00000000000000000000000000000000000F8
:1058B0000000000000000010001C800FE003F80052
:1058C0001800F800E003800F001C0010000000002A
:1058D00000000000000000000000000000000000C8
:1058E000000000000000F81F000000000000F81F8A
:1058F00000000000000000000000000000000000A8
:105900000000000000000000000000000000000097
:1059100000000000000008003800F001C007001F70
:105920000018001FC007F001380008000000000048
:105930000000000000000000E003F80F180C0C1835
:105940000C180018000C000600038001C000C00005
:10595000C00000000000C000C00000000000000007
:1059600000000000000000000000E00718180420FC
:10597000C229224A11440944094409440922111345
:10598000E20C024004201818E007000000000000AC
:10599000000000000000000080038003C006C00675
:1059A000C006600C600C301830183018F83FF83F13
:1059B0001C700C600C6006C006C0000000000000F7
:1059C0000000000000000000FC03FC0F0C0C0C1891
:1059D0000C180C180C0CFC07FC0F0C180C300C30BD
:1059E0000C300C300C18FC1FFC07000000000000FD
:1059F0000000000000000000C007F01F38381C3015
:105A00000C70066006000600060006000600060090
:105A100006600C701C30F01FE00700000000000062
:105A20000000000000000000FE03FE0F060E061836
:105A300006180630063006300630063006300630CE
:105A400006180618060EFE0FFE03000000000000F8
:105A50000000000000000000FC3FFC3F0C000C00B8
:105A60000C000C000C00FC1FFC1F0C000C000C00B8
:105A70000C000C000C00FC3FFC3F0000000000008C
:105A80000000000000000000F83FF83F1800180078
:105A9000180018001800F81FF81F18001800180048
:105AA000180018001800180018000000000000007E
:105AB0000000000000000000E00FF83F3C780E609E
:105AC00006E007C00300030003FE03FE03C007C097
:105AD00006C00EC03CF0F83FE00F000000000000E0
